{
  "_format": "hh-sol-artifact-1",
  "contractName": "ParticipantRegistry",
  "sourceName": "contracts/ParticipantRegistry.sol",
  "abi": [
    {
      "inputs": [
        {
          "internalType": "address",
          "name": "_tierManager",
          "type": "address"
        },
        {
          "internalType": "address",
          "name": "_pointsToken",
          "type": "address"
        },
        {
          "internalType": "address",
          "name": "_badgeNFT",
          "type": "address"
        }
      ],
      "stateMutability": "nonpayable",
      "type": "constructor"
    },
    {
      "inputs": [],
      "name": "EnforcedPause",
      "type": "error"
    },
    {
      "inputs": [],
      "name": "ExpectedPause",
      "type": "error"
    },
    {
      "inputs": [
        {
          "internalType": "address",
          "name": "owner",
          "type": "address"
        }
      ],
      "name": "OwnableInvalidOwner",
      "type": "error"
    },
    {
      "inputs": [
        {
          "internalType": "address",
          "name": "account",
          "type": "address"
        }
      ],
      "name": "OwnableUnauthorizedAccount",
      "type": "error"
    },
    {
      "inputs": [],
      "name": "ReentrancyGuardReentrantCall",
      "type": "error"
    },
    {
      "anonymous": false,
      "inputs": [
        {
          "indexed": true,
          "internalType": "address",
          "name": "previousOwner",
          "type": "address"
        },
        {
          "indexed": true,
          "internalType": "address",
          "name": "newOwner",
          "type": "address"
        }
      ],
      "name": "OwnershipTransferred",
      "type": "event"
    },
    {
      "anonymous": false,
      "inputs": [
        {
          "indexed": true,
          "internalType": "address",
          "name": "wallet",
          "type": "address"
        },
        {
          "indexed": false,
          "internalType": "uint256",
          "name": "joinDate",
          "type": "uint256"
        }
      ],
      "name": "ParticipantRegistered",
      "type": "event"
    },
    {
      "anonymous": false,
      "inputs": [
        {
          "indexed": true,
          "internalType": "address",
          "name": "wallet",
          "type": "address"
        },
        {
          "indexed": false,
          "internalType": "uint256",
          "name": "totalPoints",
          "type": "uint256"
        },
        {
          "indexed": false,
          "internalType": "uint256",
          "name": "tier",
          "type": "uint256"
        }
      ],
      "name": "ParticipantUpdated",
      "type": "event"
    },
    {
      "anonymous": false,
      "inputs": [
        {
          "indexed": false,
          "internalType": "address",
          "name": "account",
          "type": "address"
        }
      ],
      "name": "Paused",
      "type": "event"
    },
    {
      "anonymous": false,
      "inputs": [
        {
          "indexed": true,
          "internalType": "address",
          "name": "wallet",
          "type": "address"
        },
        {
          "indexed": false,
          "internalType": "uint256",
          "name": "points",
          "type": "uint256"
        },
        {
          "indexed": false,
          "internalType": "uint256",
          "name": "co2Offset",
          "type": "uint256"
        },
        {
          "indexed": false,
          "internalType": "string",
          "name": "activity",
          "type": "string"
        }
      ],
      "name": "PointsEarned",
      "type": "event"
    },
    {
      "anonymous": false,
      "inputs": [
        {
          "indexed": true,
          "internalType": "address",
          "name": "wallet",
          "type": "address"
        },
        {
          "indexed": false,
          "internalType": "uint256",
          "name": "oldTier",
          "type": "uint256"
        },
        {
          "indexed": false,
          "internalType": "uint256",
          "name": "newTier",
          "type": "uint256"
        },
        {
          "indexed": false,
          "internalType": "uint256",
          "name": "points",
          "type": "uint256"
        }
      ],
      "name": "TierUpgraded",
      "type": "event"
    },
    {
      "anonymous": false,
      "inputs": [
        {
          "indexed": false,
          "internalType": "address",
          "name": "account",
          "type": "address"
        }
      ],
      "name": "Unpaused",
      "type": "event"
    },
    {
      "inputs": [
        {
          "internalType": "address",
          "name": "referrer",
          "type": "address"
        },
        {
          "internalType": "address",
          "name": "referee",
          "type": "address"
        }
      ],
      "name": "awardReferralBonus",
      "outputs": [],
      "stateMutability": "nonpayable",
      "type": "function"
    },
    {
      "inputs": [],
      "name": "badgeNFT",
      "outputs": [
        {
          "internalType": "address",
          "name": "",
          "type": "address"
        }
      ],
      "stateMutability": "view",
      "type": "function"
    },
    {
      "inputs": [],
      "name": "basePointsPerKgCO2",
      "outputs": [
        {
          "internalType": "uint256",
          "name": "",
          "type": "uint256"
        }
      ],
      "stateMutability": "view",
      "type": "function"
    },
    {
      "inputs": [
        {
          "internalType": "uint256",
          "name": "co2Kg",
          "type": "uint256"
        },
        {
          "internalType": "bool",
          "name": "hasStreak",
          "type": "bool"
        }
      ],
      "name": "calculatePoints",
      "outputs": [
        {
          "internalType": "uint256",
          "name": "",
          "type": "uint256"
        }
      ],
      "stateMutability": "view",
      "type": "function"
    },
    {
      "inputs": [],
      "name": "getAllParticipants",
      "outputs": [
        {
          "internalType": "address[]",
          "name": "",
          "type": "address[]"
        }
      ],
      "stateMutability": "view",
      "type": "function"
    },
    {
      "inputs": [
        {
          "internalType": "address",
          "name": "wallet",
          "type": "address"
        }
      ],
      "name": "getParticipant",
      "outputs": [
        {
          "components": [
            {
              "internalType": "address",
              "name": "wallet",
              "type": "address"
            },
            {
              "internalType": "uint256",
              "name": "totalPoints",
              "type": "uint256"
            },
            {
              "internalType": "uint256",
              "name": "currentTier",
              "type": "uint256"
            },
            {
              "internalType": "uint256",
              "name": "joinDate",
              "type": "uint256"
            },
            {
              "internalType": "uint256",
              "name": "lastActivityDate",
              "type": "uint256"
            },
            {
              "internalType": "bool",
              "name": "isActive",
              "type": "bool"
            },
            {
              "internalType": "string",
              "name": "profileHash",
              "type": "string"
            }
          ],
          "internalType": "struct IParticipantRegistry.Participant",
          "name": "",
          "type": "tuple"
        }
      ],
      "stateMutability": "view",
      "type": "function"
    },
    {
      "inputs": [
        {
          "internalType": "address",
          "name": "wallet",
          "type": "address"
        }
      ],
      "name": "getParticipantStats",
      "outputs": [
        {
          "internalType": "uint256",
          "name": "totalPoints",
          "type": "uint256"
        },
        {
          "internalType": "uint256",
          "name": "currentTier",
          "type": "uint256"
        },
        {
          "internalType": "uint256",
          "name": "joinDate",
          "type": "uint256"
        },
        {
          "internalType": "uint256",
          "name": "lastActivityDate",
          "type": "uint256"
        },
        {
          "internalType": "uint256",
          "name": "daysActive",
          "type": "uint256"
        },
        {
          "internalType": "uint256",
          "name": "averagePointsPerDay",
          "type": "uint256"
        }
      ],
      "stateMutability": "view",
      "type": "function"
    },
    {
      "inputs": [
        {
          "internalType": "address",
          "name": "wallet",
          "type": "address"
        }
      ],
      "name": "getTierLevel",
      "outputs": [
        {
          "internalType": "uint256",
          "name": "",
          "type": "uint256"
        }
      ],
      "stateMutability": "view",
      "type": "function"
    },
    {
      "inputs": [],
      "name": "getTotalParticipants",
      "outputs": [
        {
          "internalType": "uint256",
          "name": "",
          "type": "uint256"
        }
      ],
      "stateMutability": "view",
      "type": "function"
    },
    {
      "inputs": [
        {
          "internalType": "address",
          "name": "wallet",
          "type": "address"
        }
      ],
      "name": "isRegistered",
      "outputs": [
        {
          "internalType": "bool",
          "name": "",
          "type": "bool"
        }
      ],
      "stateMutability": "view",
      "type": "function"
    },
    {
      "inputs": [],
      "name": "owner",
      "outputs": [
        {
          "internalType": "address",
          "name": "",
          "type": "address"
        }
      ],
      "stateMutability": "view",
      "type": "function"
    },
    {
      "inputs": [],
      "name": "pause",
      "outputs": [],
      "stateMutability": "nonpayable",
      "type": "function"
    },
    {
      "inputs": [],
      "name": "paused",
      "outputs": [
        {
          "internalType": "bool",
          "name": "",
          "type": "bool"
        }
      ],
      "stateMutability": "view",
      "type": "function"
    },
    {
      "inputs": [],
      "name": "pointsToken",
      "outputs": [
        {
          "internalType": "address",
          "name": "",
          "type": "address"
        }
      ],
      "stateMutability": "view",
      "type": "function"
    },
    {
      "inputs": [
        {
          "internalType": "address",
          "name": "wallet",
          "type": "address"
        },
        {
          "internalType": "uint256",
          "name": "co2OffsetKg",
          "type": "uint256"
        },
        {
          "internalType": "string",
          "name": "activityType",
          "type": "string"
        },
        {
          "internalType": "string",
          "name": "activityDescription",
          "type": "string"
        },
        {
          "internalType": "bool",
          "name": "hasStreak",
          "type": "bool"
        }
      ],
      "name": "recordOffsetActivity",
      "outputs": [],
      "stateMutability": "nonpayable",
      "type": "function"
    },
    {
      "inputs": [],
      "name": "referralBonus",
      "outputs": [
        {
          "internalType": "uint256",
          "name": "",
          "type": "uint256"
        }
      ],
      "stateMutability": "view",
      "type": "function"
    },
    {
      "inputs": [
        {
          "internalType": "string",
          "name": "profileHash",
          "type": "string"
        }
      ],
      "name": "registerParticipant",
      "outputs": [],
      "stateMutability": "nonpayable",
      "type": "function"
    },
    {
      "inputs": [],
      "name": "renounceOwnership",
      "outputs": [],
      "stateMutability": "nonpayable",
      "type": "function"
    },
    {
      "inputs": [],
      "name": "streakBonusMultiplier",
      "outputs": [
        {
          "internalType": "uint256",
          "name": "",
          "type": "uint256"
        }
      ],
      "stateMutability": "view",
      "type": "function"
    },
    {
      "inputs": [],
      "name": "tierManager",
      "outputs": [
        {
          "internalType": "address",
          "name": "",
          "type": "address"
        }
      ],
      "stateMutability": "view",
      "type": "function"
    },
    {
      "inputs": [
        {
          "internalType": "address",
          "name": "newOwner",
          "type": "address"
        }
      ],
      "name": "transferOwnership",
      "outputs": [],
      "stateMutability": "nonpayable",
      "type": "function"
    },
    {
      "inputs": [],
      "name": "unpause",
      "outputs": [],
      "stateMutability": "nonpayable",
      "type": "function"
    },
    {
      "inputs": [
        {
          "internalType": "address",
          "name": "_tierManager",
          "type": "address"
        },
        {
          "internalType": "address",
          "name": "_pointsToken",
          "type": "address"
        },
        {
          "internalType": "address",
          "name": "_badgeNFT",
          "type": "address"
        }
      ],
      "name": "updateContractAddresses",
      "outputs": [],
      "stateMutability": "nonpayable",
      "type": "function"
    },
    {
      "inputs": [
        {
          "internalType": "address",
          "name": "wallet",
          "type": "address"
        },
        {
          "internalType": "uint256",
          "name": "points",
          "type": "uint256"
        },
        {
          "internalType": "uint256",
          "name": "co2Offset",
          "type": "uint256"
        },
        {
          "internalType": "string",
          "name": "activity",
          "type": "string"
        }
      ],
      "name": "updateParticipant",
      "outputs": [],
      "stateMutability": "nonpayable",
      "type": "function"
    },
    {
      "inputs": [
        {
          "internalType": "uint256",
          "name": "_basePointsPerKgCO2",
          "type": "uint256"
        },
        {
          "internalType": "uint256",
          "name": "_streakBonusMultiplier",
          "type": "uint256"
        },
        {
          "internalType": "uint256",
          "name": "_referralBonus",
          "type": "uint256"
        }
      ],
      "name": "updatePointsConfig",
      "outputs": [],
      "stateMutability": "nonpayable",
      "type": "function"
    }
  ],
  "bytecode": "0x6080604052600a600655600560075560326008553480156200002057600080fd5b50604051620026f5380380620026f583398101604081905262000043916200012a565b33806200006a57604051631e4fbdf760e01b81526000600482015260240160405180910390fd5b6200007581620000bd565b5060018055600980546001600160a01b039485166001600160a01b031991821617909155600a805493851693821693909317909255600b805491909316911617905562000174565b600080546001600160a01b038381166001600160a01b0319831681178455604051919092169283917f8be0079c531659141344cd1fd0a4f28419497f9722a3daafe3b4186f6b6457e09190a35050565b80516001600160a01b03811681146200012557600080fd5b919050565b6000806000606084860312156200014057600080fd5b6200014b846200010d565b92506200015b602085016200010d565b91506200016b604085016200010d565b90509250925092565b61257180620001846000396000f3fe608060405234801561001057600080fd5b50600436106101735760003560e01c8063867dc007116100de578063b3fbad5011610097578063d7b73e1011610071578063d7b73e1014610359578063da51d66d14610362578063da8c4d3314610375578063f2fde38b1461038857600080fd5b8063b3fbad501461030e578063c3c5a54714610321578063ce7842f51461035057600080fd5b8063867dc007146102b35780638da5cb5b146102c65780638f48c65b146102d75780639c1a2893146102ea578063a84183dc146102f3578063a90cc4451461030657600080fd5b80635c975abb116101305780635c975abb1461023f5780637143059f1461025d578063715018a61461027d57806372e1011c14610285578063731b86bb146102985780638456cb59146102ab57600080fd5b8063195ec9ee146101785780632071088a1461019657806328fc4c3c146101ab5780633f4ba83a146101cc5780634348e0e9146101d45780635b669de4146101ff575b600080fd5b61018061039b565b60405161018d9190611ae3565b60405180910390f35b6101a96101a4366004611b4c565b6103fd565b005b6101be6101b9366004611b8f565b610444565b60405190815260200161018d565b6101a96104a8565b600b546101e7906001600160a01b031681565b6040516001600160a01b03909116815260200161018d565b61021261020d366004611b8f565b6104ba565b604080519687526020870195909552938501929092526060840152608083015260a082015260c00161018d565b600054600160a01b900460ff165b604051901515815260200161018d565b61027061026b366004611b8f565b610660565b60405161018d9190611c01565b6101a96107af565b600a546101e7906001600160a01b031681565b6101a96102a6366004611c6b565b6107c1565b6101a96107d7565b6009546101e7906001600160a01b031681565b6000546001600160a01b03166101e7565b6101a96102e5366004611d4a565b6107e7565b6101be60075481565b6101be610301366004611dd9565b610d8a565b6005546101be565b6101a961031c366004611e05565b610dd3565b61024d61032f366004611b8f565b6001600160a01b031660009081526002602052604090206005015460ff1690565b6101be60085481565b6101be60065481565b6101a9610370366004611e3a565b611112565b6101a9610383366004611e64565b611346565b6101a9610396366004611b8f565b611803565b606060038054806020026020016040519081016040528092919081815260200182805480156103f357602002820191906000526020600020905b81546001600160a01b031681526001909101906020018083116103d5575b5050505050905090565b61040561183e565b600980546001600160a01b039485166001600160a01b031991821617909155600a805493851693821693909317909255600b8054919093169116179055565b6001600160a01b03811660009081526002602052604081206005015460ff166104885760405162461bcd60e51b815260040161047f90611ec5565b60405180910390fd5b506001600160a01b03166000908152600260208190526040909120015490565b6104b061183e565b6104b861186b565b565b6001600160a01b0381166000908152600260205260408120600501548190819081908190819060ff166104ff5760405162461bcd60e51b815260040161047f90611ec5565b6001600160a01b038088166000908152600260208181526040808420815160e0810183528154909616865260018101549286019290925291810154918401919091526003810154606084015260048101546080840152600581015460ff16151560a084015260068101805492939260c08401919061057c90611ef4565b80601f01602080910402602001604051908101604052809291908181526020018280546105a890611ef4565b80156105f55780601f106105ca576101008083540402835291602001916105f5565b820191906000526020600020905b8154815290600101906020018083116105d857829003601f168201915b505050919092525050506020810151604082015160608301516080840151929a50909850965094509050426201518061062e8783611f44565b6106389190611f57565b935083156106515761064a8489611f57565b9250610655565b8792505b505091939550919395565b6106ab6040518060e0016040528060006001600160a01b0316815260200160008152602001600081526020016000815260200160008152602001600015158152602001606081525090565b6001600160a01b03808316600090815260026020818152604092839020835160e0810185528154909516855260018101549185019190915290810154918301919091526003810154606083015260048101546080830152600581015460ff16151560a083015260068101805460c08401919061072690611ef4565b80601f016020809104026020016040519081016040528092919081815260200182805461075290611ef4565b801561079f5780601f106107745761010080835404028352916020019161079f565b820191906000526020600020905b81548152906001019060200180831161078257829003601f168201915b5050505050815250509050919050565b6107b761183e565b6104b860006118c0565b6107c961183e565b600692909255600755600855565b6107df61183e565b6104b8611910565b6000546001600160a01b031633148061080a57506009546001600160a01b031633145b6108265760405162461bcd60e51b815260040161047f90611f79565b6001600160a01b03851660009081526002602052604090206005015460ff166108615760405162461bcd60e51b815260040161047f90611ec5565b600084116108bb5760405162461bcd60e51b815260206004820152602160248201527f434f32206f6666736574206d7573742062652067726561746572207468616e206044820152600360fc1b606482015260840161047f565b60008351116109055760405162461bcd60e51b81526020600482015260166024820152751058dd1a5d9a5d1e481d1e5c19481c995c5d5a5c995960521b604482015260640161047f565b60008251116109565760405162461bcd60e51b815260206004820152601d60248201527f4163746976697479206465736372697074696f6e207265717569726564000000604482015260640161047f565b6000600654856109669190611fa1565b905081156109955760646007548261097e9190611fa1565b6109889190611f57565b6109929082611fb8565b90505b6001600160a01b038087166000908152600260208190526040822060095491810154909391909116906341e1255a9060038111156109d5576109d5611fcb565b6040518263ffffffff1660e01b81526004016109f19190611fe1565b602060405180830381865afa158015610a0e573d6000803e3d6000fd5b505050506040513d601f19601f82011682018060405250810190610a329190612009565b905060006064610a428386611fa1565b610a4c9190611f57565b905080836001016000828254610a629190611fb8565b9091555050426004848101919091556009546001850154604051632c82008d60e21b8152928301526000916001600160a01b039091169063b208023490602401602060405180830381865afa158015610abf573d6000803e3d6000fd5b505050506040513d601f19601f82011682018060405250810190610ae39190612022565b90508360020154816003811115610afc57610afc611fcb565b1115610c9157600084600201546003811115610b1a57610b1a611fcb565b9050816003811115610b2e57610b2e611fcb565b60028601556000610b3e83611953565b600b546040519192506001600160a01b03169063e8046ec3908e908490610b69908290602001612043565b60405160208183030381529060405285604051602001610b899190612087565b60405160208183030381529060405286604051602001610ba991906120dc565b6040516020818303038152906040526040518663ffffffff1660e01b8152600401610bd895949392919061211f565b6020604051808303816000875af1158015610bf7573d6000803e3d6000fd5b505050506040513d601f19601f82011682018060405250810190610c1b9190612009565b508b6001600160a01b03167f88d765a84878c2adcb81f6fe86f655749503ed376b92a4a9f27d4db1a6e7bceb836003811115610c5957610c59611fcb565b856003811115610c6b57610c6b611fcb565b60018a01546040805193845260208401929092529082015260600160405180910390a250505b600a546040516334ff261960e21b81526001600160a01b039091169063d3fc986490610cc5908d9086908c90600401612189565b600060405180830381600087803b158015610cdf57600080fd5b505af1158015610cf3573d6000803e3d6000fd5b50505050896001600160a01b03167f0eb17391e7d38be2df7ee49e0c55900c82f71d983b285a975d5636ad81a00d9985600101548660020154604051610d43929190918252602082015260400190565b60405180910390a2896001600160a01b031660008051602061251c833981519152838b8a604051610d76939291906121b9565b60405180910390a250505050505050505050565b60008060065484610d9b9190611fa1565b90508215610dca57606460075482610db39190611fa1565b610dbd9190611f57565b610dc79082611fb8565b90505b90505b92915050565b610ddb611a64565b610de3611a8f565b3360009081526002602052604090206005015460ff1615610e3b5760405162461bcd60e51b8152602060048201526012602482015271105b1c9958591e481c9959da5cdd195c995960721b604482015260640161047f565b6000815111610e845760405162461bcd60e51b8152602060048201526015602482015274141c9bd99a5b19481a185cda081c995c5d5a5c9959605a1b604482015260640161047f565b6040805160e0810182523380825260006020808401828152848601838152426060870181815260808801918252600160a0890181815260c08a018c815298885260029687905299909620885181546001600160a01b0319166001600160a01b0390911617815593519584019590955590519282019290925591516003830155516004820155925160058401805460ff191691151591909117905551909182916006820190610f329082612227565b5050600380546001818101835560008390527fc2575a0e9e593c00f959f8c92f12db2869c3395a3b0502d05e2516446f71f85b90910180546001600160a01b031916331790559054610f849250611f44565b336000908152600460205260408120919091556005805491610fa5836122e7565b9091555050336000818152600260205260409081902060646001909101819055600a5491516334ff261960e21b815290926001600160a01b039092169163d3fc986491610ff791908590600401612300565b600060405180830381600087803b15801561101157600080fd5b505af1158015611025573d6000803e3d6000fd5b5050600b5460405163e8046ec360e01b81526001600160a01b03909116925063e8046ec39150611059903390600401612348565b6020604051808303816000875af1158015611078573d6000803e3d6000fd5b505050506040513d601f19601f8201168201806040525081019061109c9190612009565b5060405142815233907fa48418fa780c651bef841ca082131ed20bc20c620dd0459bba9ab78550f5d6239060200160405180910390a2336001600160a01b031660008051602061251c8339815191528260006040516110fc92919061245f565b60405180910390a2505061110f60018055565b50565b6000546001600160a01b031633148061113557506009546001600160a01b031633145b6111515760405162461bcd60e51b815260040161047f90611f79565b6001600160a01b03821660009081526002602052604090206005015460ff166111bc5760405162461bcd60e51b815260206004820152601760248201527f5265666572726572206e6f742072656769737465726564000000000000000000604482015260640161047f565b6001600160a01b03811660009081526002602052604090206005015460ff166112205760405162461bcd60e51b8152602060048201526016602482015275149959995c9959481b9bdd081c9959da5cdd195c995960521b604482015260640161047f565b806001600160a01b0316826001600160a01b0316036112755760405162461bcd60e51b815260206004820152601160248201527021b0b73737ba103932b332b91039b2b63360791b604482015260640161047f565b6008546001600160a01b038316600090815260026020526040812060010180549091906112a3908490611fb8565b9091555050600a546008546040516334ff261960e21b81526001600160a01b039092169163d3fc9864916112dc9186919060040161249d565b600060405180830381600087803b1580156112f657600080fd5b505af115801561130a573d6000803e3d6000fd5b50505050816001600160a01b031660008051602061251c833981519152600854600060405161133a9291906124e1565b60405180910390a25050565b6000546001600160a01b031633148061136957506009546001600160a01b031633145b6113855760405162461bcd60e51b815260040161047f90611f79565b6001600160a01b03841660009081526002602052604090206005015460ff166113c05760405162461bcd60e51b815260040161047f90611ec5565b600083116114105760405162461bcd60e51b815260206004820152601d60248201527f506f696e7473206d7573742062652067726561746572207468616e2030000000604482015260640161047f565b6001600160a01b038085166000908152600260208190526040822060095491810154909391909116906341e1255a90600381111561145057611450611fcb565b6040518263ffffffff1660e01b815260040161146c9190611fe1565b602060405180830381865afa158015611489573d6000803e3d6000fd5b505050506040513d601f19601f820116820180604052508101906114ad9190612009565b9050600060646114bd8388611fa1565b6114c79190611f57565b9050808360010160008282546114dd9190611fb8565b9091555050426004848101919091556009546001850154604051632c82008d60e21b8152928301526000916001600160a01b039091169063b208023490602401602060405180830381865afa15801561153a573d6000803e3d6000fd5b505050506040513d601f19601f8201168201806040525081019061155e9190612022565b9050836002015481600381111561157757611577611fcb565b111561170c5760008460020154600381111561159557611595611fcb565b90508160038111156115a9576115a9611fcb565b600286015560006115b983611953565b600b546040519192506001600160a01b03169063e8046ec3908c9084906115e4908290602001612043565b604051602081830303815290604052856040516020016116049190612087565b6040516020818303038152906040528660405160200161162491906120dc565b6040516020818303038152906040526040518663ffffffff1660e01b815260040161165395949392919061211f565b6020604051808303816000875af1158015611672573d6000803e3d6000fd5b505050506040513d601f19601f820116820180604052508101906116969190612009565b50896001600160a01b03167f88d765a84878c2adcb81f6fe86f655749503ed376b92a4a9f27d4db1a6e7bceb8360038111156116d4576116d4611fcb565b8560038111156116e6576116e6611fcb565b60018a01546040805193845260208401929092529082015260600160405180910390a250505b600a546040516334ff261960e21b81526001600160a01b039091169063d3fc986490611740908b9086908a90600401612189565b600060405180830381600087803b15801561175a57600080fd5b505af115801561176e573d6000803e3d6000fd5b50505050876001600160a01b03167f0eb17391e7d38be2df7ee49e0c55900c82f71d983b285a975d5636ad81a00d99856001015486600201546040516117be929190918252602082015260400190565b60405180910390a2876001600160a01b031660008051602061251c8339815191528388886040516117f1939291906121b9565b60405180910390a25050505050505050565b61180b61183e565b6001600160a01b03811661183557604051631e4fbdf760e01b81526000600482015260240161047f565b61110f816118c0565b6000546001600160a01b031633146104b85760405163118cdaa760e01b815233600482015260240161047f565b611873611ab9565b6000805460ff60a01b191690557f5db9ee0a495bf2e6ff9c91a7834c1ba4fdd244a5e8aa4e537bd38aeae4b073aa335b6040516001600160a01b03909116815260200160405180910390a1565b600080546001600160a01b038381166001600160a01b0319831681178455604051919092169283917f8be0079c531659141344cd1fd0a4f28419497f9722a3daafe3b4186f6b6457e09190a35050565b611918611a64565b6000805460ff60a01b1916600160a01b1790557f62e78cea01bee320cd4e420270b5ea74000d11b0c9f74754ebdbfc544b05a2586118a33390565b6060600082600381111561196957611969611fcb565b0361199057505060408051808201909152600681526542524f4e5a4560d01b602082015290565b60018260038111156119a4576119a4611fcb565b036119cb57505060408051808201909152600681526529a4a62b22a960d11b602082015290565b60028260038111156119df576119df611fcb565b03611a0457505060408051808201909152600481526311d3d31160e21b602082015290565b6003826003811115611a1857611a18611fcb565b03611a41575050604080518082019091526008815267504c4154494e554d60c01b602082015290565b50506040805180820190915260078152662aa725a727aba760c91b602082015290565b600054600160a01b900460ff16156104b85760405163d93c066560e01b815260040160405180910390fd5b600260015403611ab257604051633ee5aeb560e01b815260040160405180910390fd5b6002600155565b600054600160a01b900460ff166104b857604051638dfc202b60e01b815260040160405180910390fd5b6020808252825182820181905260009190848201906040850190845b81811015611b245783516001600160a01b031683529284019291840191600101611aff565b50909695505050505050565b80356001600160a01b0381168114611b4757600080fd5b919050565b600080600060608486031215611b6157600080fd5b611b6a84611b30565b9250611b7860208501611b30565b9150611b8660408501611b30565b90509250925092565b600060208284031215611ba157600080fd5b611baa82611b30565b9392505050565b60005b83811015611bcc578181015183820152602001611bb4565b50506000910152565b60008151808452611bed816020860160208601611bb1565b601f01601f19169290920160200192915050565b6020815260018060a01b038251166020820152602082015160408201526040820151606082015260608201516080820152608082015160a082015260a0820151151560c0820152600060c083015160e080840152611c63610100840182611bd5565b949350505050565b600080600060608486031215611c8057600080fd5b505081359360208301359350604090920135919050565b634e487b7160e01b600052604160045260246000fd5b600082601f830112611cbe57600080fd5b813567ffffffffffffffff80821115611cd957611cd9611c97565b604051601f8301601f19908116603f01168101908282118183101715611d0157611d01611c97565b81604052838152866020858801011115611d1a57600080fd5b836020870160208301376000602085830101528094505050505092915050565b80358015158114611b4757600080fd5b600080600080600060a08688031215611d6257600080fd5b611d6b86611b30565b945060208601359350604086013567ffffffffffffffff80821115611d8f57600080fd5b611d9b89838a01611cad565b94506060880135915080821115611db157600080fd5b50611dbe88828901611cad565b925050611dcd60808701611d3a565b90509295509295909350565b60008060408385031215611dec57600080fd5b82359150611dfc60208401611d3a565b90509250929050565b600060208284031215611e1757600080fd5b813567ffffffffffffffff811115611e2e57600080fd5b611c6384828501611cad565b60008060408385031215611e4d57600080fd5b611e5683611b30565b9150611dfc60208401611b30565b60008060008060808587031215611e7a57600080fd5b611e8385611b30565b93506020850135925060408501359150606085013567ffffffffffffffff811115611ead57600080fd5b611eb987828801611cad565b91505092959194509250565b60208082526015908201527414185c9d1a58da5c185b9d081b9bdd08199bdd5b99605a1b604082015260600190565b600181811c90821680611f0857607f821691505b602082108103611f2857634e487b7160e01b600052602260045260246000fd5b50919050565b634e487b7160e01b600052601160045260246000fd5b81810381811115610dcd57610dcd611f2e565b600082611f7457634e487b7160e01b600052601260045260246000fd5b500490565b6020808252600e908201526d139bdd08185d5d1a1bdc9a5e995960921b604082015260600190565b8082028115828204841417610dcd57610dcd611f2e565b80820180821115610dcd57610dcd611f2e565b634e487b7160e01b600052602160045260246000fd5b602081016004831061200357634e487b7160e01b600052602160045260246000fd5b91905290565b60006020828403121561201b57600080fd5b5051919050565b60006020828403121561203457600080fd5b815160048110610dca57600080fd5b6a023b932b2b721b430b4b7160ad1b81526000825161206981600b850160208701611bb1565b661026b2b6b132b960c91b600b939091019283015250601201919050565b7f436f6e67726174756c6174696f6e732120596f752776652072656163686564208152600082516120bf816020850160208701611bb1565b65103a34b2b91760d11b6020939091019283015250602601919050565b68697066733a2f2f516d60b81b815260008251612100816009850160208701611bb1565b67426164676555524960c01b6009939091019283015250601101919050565b6001600160a01b038616815260a06020820181905260009061214390830187611bd5565b82810360408401526121558187611bd5565b905082810360608401526121698186611bd5565b9050828103608084015261217d8185611bd5565b98975050505050505050565b60018060a01b03841681528260208201526060604082015260006121b06060830184611bd5565b95945050505050565b8381528260208201526060604082015260006121b06060830184611bd5565b601f82111561222257600081815260208120601f850160051c810160208610156121ff5750805b601f850160051c820191505b8181101561221e5782815560010161220b565b5050505b505050565b815167ffffffffffffffff81111561224157612241611c97565b6122558161224f8454611ef4565b846121d8565b602080601f83116001811461228a57600084156122725750858301515b600019600386901b1c1916600185901b17855561221e565b600085815260208120601f198616915b828110156122b95788860151825594840194600190910190840161229a565b50858210156122d75787850151600019600388901b60f8161c191681555b5050505050600190811b01905550565b6000600182016122f9576122f9611f2e565b5060010190565b6001600160a01b03831681526020810182905260606040820181905260129082015271526567697374726174696f6e20626f6e757360701b6080820152600060a08201611c63565b60018060a01b038216815260a06020820152600660a08201526542524f4e5a4560d01b60c082015260e06040820152601860e08201527f477265656e436861696e2042726f6e7a65204d656d62657200000000000000006101008201526000610120806060840152605181840152507f57656c636f6d6520746f20477265656e436861696e2120596f752776652074616101408301527f6b656e20796f7572206669727374207374657020746f776172647320612073756101608301527039ba30b4b730b1363290333aba3ab9329760791b6101808301526101a0806080840152611c63818401601781527f697066733a2f2f516d42726f6e7a654261646765555249000000000000000000602082015260400190565b828152816020820152606060408201526000611c63606083016012815271526567697374726174696f6e20626f6e757360701b602082015260400190565b6001600160a01b038316815260208101829052606060408201819052600e908201526d526566657272616c20626f6e757360901b6080820152600060a08201611c63565b828152816020820152606060408201526000611c6360608301600e81526d526566657272616c20626f6e757360901b60208201526040019056fe15ec6a36568cc448176a914e6b6f898eaa0954b251b9092827f3d510aae5af31a26469706673582212206f4110bbcd25f63100de5b7329ac7fbc611ab04e012929031b7e71492b4760f164736f6c63430008140033",
  "linkReferences": {},
  "deployedLinkReferences": {}
}