{
  "_format": "hh-sol-artifact-1",
  "contractName": "RewardsVault",
  "sourceName": "contracts/RewardsVault.sol",
  "abi": [
    {
      "inputs": [
        {
          "internalType": "address",
          "name": "_couponExchange",
          "type": "address"
        },
        {
          "internalType": "address",
          "name": "_participantRegistry",
          "type": "address"
        }
      ],
      "stateMutability": "nonpayable",
      "type": "constructor"
    },
    {
      "inputs": [],
      "name": "EnforcedPause",
      "type": "error"
    },
    {
      "inputs": [],
      "name": "ExpectedPause",
      "type": "error"
    },
    {
      "inputs": [
        {
          "internalType": "address",
          "name": "owner",
          "type": "address"
        }
      ],
      "name": "OwnableInvalidOwner",
      "type": "error"
    },
    {
      "inputs": [
        {
          "internalType": "address",
          "name": "account",
          "type": "address"
        }
      ],
      "name": "OwnableUnauthorizedAccount",
      "type": "error"
    },
    {
      "inputs": [],
      "name": "ReentrancyGuardReentrantCall",
      "type": "error"
    },
    {
      "anonymous": false,
      "inputs": [
        {
          "indexed": true,
          "internalType": "address",
          "name": "previousOwner",
          "type": "address"
        },
        {
          "indexed": true,
          "internalType": "address",
          "name": "newOwner",
          "type": "address"
        }
      ],
      "name": "OwnershipTransferred",
      "type": "event"
    },
    {
      "anonymous": false,
      "inputs": [
        {
          "indexed": false,
          "internalType": "address",
          "name": "account",
          "type": "address"
        }
      ],
      "name": "Paused",
      "type": "event"
    },
    {
      "anonymous": false,
      "inputs": [
        {
          "indexed": false,
          "internalType": "uint256",
          "name": "couponId",
          "type": "uint256"
        },
        {
          "indexed": false,
          "internalType": "uint256",
          "name": "amount",
          "type": "uint256"
        }
      ],
      "name": "RewardDeposited",
      "type": "event"
    },
    {
      "anonymous": false,
      "inputs": [
        {
          "indexed": false,
          "internalType": "uint256",
          "name": "couponId",
          "type": "uint256"
        },
        {
          "indexed": false,
          "internalType": "uint256",
          "name": "amount",
          "type": "uint256"
        }
      ],
      "name": "RewardWithdrawn",
      "type": "event"
    },
    {
      "anonymous": false,
      "inputs": [
        {
          "indexed": false,
          "internalType": "address",
          "name": "account",
          "type": "address"
        }
      ],
      "name": "Unpaused",
      "type": "event"
    },
    {
      "inputs": [],
      "name": "couponExchange",
      "outputs": [
        {
          "internalType": "address",
          "name": "",
          "type": "address"
        }
      ],
      "stateMutability": "view",
      "type": "function"
    },
    {
      "inputs": [
        {
          "internalType": "uint256",
          "name": "couponId",
          "type": "uint256"
        },
        {
          "internalType": "uint256",
          "name": "amount",
          "type": "uint256"
        }
      ],
      "name": "depositReward",
      "outputs": [],
      "stateMutability": "nonpayable",
      "type": "function"
    },
    {
      "inputs": [
        {
          "internalType": "uint256",
          "name": "couponId",
          "type": "uint256"
        },
        {
          "internalType": "uint256",
          "name": "amount",
          "type": "uint256"
        }
      ],
      "name": "emergencyWithdraw",
      "outputs": [],
      "stateMutability": "nonpayable",
      "type": "function"
    },
    {
      "inputs": [
        {
          "internalType": "uint256",
          "name": "couponId",
          "type": "uint256"
        }
      ],
      "name": "getCouponInventoryStatus",
      "outputs": [
        {
          "internalType": "uint256",
          "name": "",
          "type": "uint256"
        },
        {
          "internalType": "uint256",
          "name": "",
          "type": "uint256"
        },
        {
          "internalType": "uint256",
          "name": "",
          "type": "uint256"
        }
      ],
      "stateMutability": "view",
      "type": "function"
    },
    {
      "inputs": [],
      "name": "getCouponsWithInventory",
      "outputs": [
        {
          "internalType": "uint256[]",
          "name": "",
          "type": "uint256[]"
        }
      ],
      "stateMutability": "view",
      "type": "function"
    },
    {
      "inputs": [
        {
          "internalType": "uint256",
          "name": "couponId",
          "type": "uint256"
        }
      ],
      "name": "getRewardBalance",
      "outputs": [
        {
          "internalType": "uint256",
          "name": "",
          "type": "uint256"
        }
      ],
      "stateMutability": "view",
      "type": "function"
    },
    {
      "inputs": [],
      "name": "getTotalRewards",
      "outputs": [
        {
          "internalType": "uint256",
          "name": "",
          "type": "uint256"
        }
      ],
      "stateMutability": "view",
      "type": "function"
    },
    {
      "inputs": [
        {
          "internalType": "uint256",
          "name": "couponId",
          "type": "uint256"
        },
        {
          "internalType": "uint256",
          "name": "requiredAmount",
          "type": "uint256"
        }
      ],
      "name": "hasSufficientInventory",
      "outputs": [
        {
          "internalType": "bool",
          "name": "",
          "type": "bool"
        }
      ],
      "stateMutability": "view",
      "type": "function"
    },
    {
      "inputs": [
        {
          "internalType": "uint256",
          "name": "couponId",
          "type": "uint256"
        },
        {
          "internalType": "uint8",
          "name": "action",
          "type": "uint8"
        },
        {
          "internalType": "uint256",
          "name": "amount",
          "type": "uint256"
        }
      ],
      "name": "manageInventory",
      "outputs": [
        {
          "internalType": "bool",
          "name": "success",
          "type": "bool"
        },
        {
          "internalType": "uint256",
          "name": "newBalance",
          "type": "uint256"
        }
      ],
      "stateMutability": "nonpayable",
      "type": "function"
    },
    {
      "inputs": [],
      "name": "owner",
      "outputs": [
        {
          "internalType": "address",
          "name": "",
          "type": "address"
        }
      ],
      "stateMutability": "view",
      "type": "function"
    },
    {
      "inputs": [],
      "name": "participantRegistry",
      "outputs": [
        {
          "internalType": "address",
          "name": "",
          "type": "address"
        }
      ],
      "stateMutability": "view",
      "type": "function"
    },
    {
      "inputs": [],
      "name": "pause",
      "outputs": [],
      "stateMutability": "nonpayable",
      "type": "function"
    },
    {
      "inputs": [],
      "name": "paused",
      "outputs": [
        {
          "internalType": "bool",
          "name": "",
          "type": "bool"
        }
      ],
      "stateMutability": "view",
      "type": "function"
    },
    {
      "inputs": [],
      "name": "renounceOwnership",
      "outputs": [],
      "stateMutability": "nonpayable",
      "type": "function"
    },
    {
      "inputs": [
        {
          "internalType": "address",
          "name": "newOwner",
          "type": "address"
        }
      ],
      "name": "transferOwnership",
      "outputs": [],
      "stateMutability": "nonpayable",
      "type": "function"
    },
    {
      "inputs": [],
      "name": "unpause",
      "outputs": [],
      "stateMutability": "nonpayable",
      "type": "function"
    },
    {
      "inputs": [
        {
          "internalType": "address",
          "name": "_couponExchange",
          "type": "address"
        },
        {
          "internalType": "address",
          "name": "_participantRegistry",
          "type": "address"
        }
      ],
      "name": "updateContractAddresses",
      "outputs": [],
      "stateMutability": "nonpayable",
      "type": "function"
    },
    {
      "inputs": [
        {
          "internalType": "uint256",
          "name": "couponId",
          "type": "uint256"
        },
        {
          "internalType": "uint256",
          "name": "amount",
          "type": "uint256"
        }
      ],
      "name": "withdrawReward",
      "outputs": [],
      "stateMutability": "nonpayable",
      "type": "function"
    }
  ],
  "bytecode": "0x608060405234801561001057600080fd5b50604051610c57380380610c5783398101604081905261002f91610100565b338061005557604051631e4fbdf760e01b81526000600482015260240160405180910390fd5b61005e81610094565b5060018055600480546001600160a01b039384166001600160a01b03199182161790915560058054929093169116179055610133565b600080546001600160a01b038381166001600160a01b0319831681178455604051919092169283917f8be0079c531659141344cd1fd0a4f28419497f9722a3daafe3b4186f6b6457e09190a35050565b80516001600160a01b03811681146100fb57600080fd5b919050565b6000806040838503121561011357600080fd5b61011c836100e4565b915061012a602084016100e4565b90509250929050565b610b15806101426000396000f3fe608060405234801561001057600080fd5b50600436106101165760003560e01c80638456cb59116100a2578063ce8020a611610071578063ce8020a614610276578063d428d9d614610289578063e627f2db1461029c578063f2fde38b146102a4578063f3b7c3ab146102b757600080fd5b80638456cb591461020c5780638da5cb5b146102145780639e9ca59114610225578063c23273561461023857600080fd5b806337878b94116100e957806337878b94146101895780633ac9f017146101b45780633f4ba83a146101de5780635c975abb146101e6578063715018a61461020457600080fd5b80630f82f7d51461011b5780631267f7281461014e5780631f276b6e146101635780631ff6dc5b14610176575b600080fd5b61013b6101293660046108e6565b60009081526002602052604090205490565b6040519081526020015b60405180910390f35b61016161015c3660046108ff565b6102d0565b005b6101616101713660046108ff565b6103fd565b61016161018436600461093d565b610405565b60045461019c906001600160a01b031681565b6040516001600160a01b039091168152602001610145565b6101c76101c2366004610970565b61043b565b604080519215158352602083019190915201610145565b610161610603565b600054600160a01b900460ff165b6040519015158152602001610145565b610161610615565b610161610627565b6000546001600160a01b031661019c565b60055461019c906001600160a01b031681565b61025b6102463660046108e6565b60009081526002602052604081205491829190565b60408051938452602084019290925290820152606001610145565b6101f46102843660046108ff565b610637565b6101616102973660046108ff565b610650565b60035461013b565b6101616102b23660046109ae565b61073e565b60408051600081526020810191829052610145916109d0565b6000546001600160a01b03163314806102f357506004546001600160a01b031633145b8061030857506005546001600160a01b031633145b61032d5760405162461bcd60e51b815260040161032490610a14565b60405180910390fd5b61033561077c565b600081116103555760405162461bcd60e51b815260040161032490610a3c565b6000828152600260205260409020548111156103835760405162461bcd60e51b815260040161032490610a73565b600082815260026020526040812080548392906103a1908490610ab9565b9250508190555080600360008282546103ba9190610ab9565b909155505060408051838152602081018390527f636f874559828b1629d63384be62be9977582d7eebf0539f2a88d87c5602cd0291015b60405180910390a15050565b6103356107a7565b61040d6107a7565b600480546001600160a01b039384166001600160a01b03199182161790915560058054929093169116179055565b6000806104506000546001600160a01b031690565b6001600160a01b0316336001600160a01b0316148061047957506004546001600160a01b031633145b8061048e57506005546001600160a01b031633145b6104aa5760405162461bcd60e51b815260040161032490610a14565b600083116104ca5760405162461bcd60e51b815260040161032490610a3c565b6000808560ff1660000361051e57600087815260026020526040812080548792906104f6908490610acc565b92505081905550846003600082825461050f9190610acc565b90915550600192506105e99050565b8560ff1660010361058e576000878152600260205260409020548511156105575760405162461bcd60e51b815260040161032490610a73565b60008781526002602052604081208054879290610575908490610ab9565b92505081905550846003600082825461050f9190610ab9565b8560ff166002036105d0576000878152600260205260409020548511156105c75760405162461bcd60e51b815260040161032490610a73565b600191506105e9565b8560ff166003036105e457600191506105e9565b600091505b506000958652600260205260409095205494959350505050565b61060b6107a7565b6106136107d4565b565b61061d6107a7565b6106136000610829565b61062f6107a7565b610613610879565b6000828152600260205260409020548111155b92915050565b6000546001600160a01b031633148061067357506004546001600160a01b031633145b8061068857506005546001600160a01b031633145b6106a45760405162461bcd60e51b815260040161032490610a14565b6106ac61077c565b600081116106cc5760405162461bcd60e51b815260040161032490610a3c565b600082815260026020526040812080548392906106ea908490610acc565b9250508190555080600360008282546107039190610acc565b909155505060408051838152602081018390527fbf2ebcc991369bcf488ef5738352a5d8998bd7a2c138128ca91ec96afe123fd691016103f1565b6107466107a7565b6001600160a01b03811661077057604051631e4fbdf760e01b815260006004820152602401610324565b61077981610829565b50565b600054600160a01b900460ff16156106135760405163d93c066560e01b815260040160405180910390fd5b6000546001600160a01b031633146106135760405163118cdaa760e01b8152336004820152602401610324565b6107dc6108bc565b6000805460ff60a01b191690557f5db9ee0a495bf2e6ff9c91a7834c1ba4fdd244a5e8aa4e537bd38aeae4b073aa335b6040516001600160a01b03909116815260200160405180910390a1565b600080546001600160a01b038381166001600160a01b0319831681178455604051919092169283917f8be0079c531659141344cd1fd0a4f28419497f9722a3daafe3b4186f6b6457e09190a35050565b61088161077c565b6000805460ff60a01b1916600160a01b1790557f62e78cea01bee320cd4e420270b5ea74000d11b0c9f74754ebdbfc544b05a25861080c3390565b600054600160a01b900460ff1661061357604051638dfc202b60e01b815260040160405180910390fd5b6000602082840312156108f857600080fd5b5035919050565b6000806040838503121561091257600080fd5b50508035926020909101359150565b80356001600160a01b038116811461093857600080fd5b919050565b6000806040838503121561095057600080fd5b61095983610921565b915061096760208401610921565b90509250929050565b60008060006060848603121561098557600080fd5b83359250602084013560ff8116811461099d57600080fd5b929592945050506040919091013590565b6000602082840312156109c057600080fd5b6109c982610921565b9392505050565b6020808252825182820181905260009190848201906040850190845b81811015610a08578351835292840192918401916001016109ec565b50909695505050505050565b6020808252600e908201526d139bdd08185d5d1a1bdc9a5e995960921b604082015260600190565b6020808252601d908201527f416d6f756e74206d7573742062652067726561746572207468616e2030000000604082015260600190565b602080825260169082015275496e73756666696369656e7420696e76656e746f727960501b604082015260600190565b634e487b7160e01b600052601160045260246000fd5b8181038181111561064a5761064a610aa3565b8082018082111561064a5761064a610aa356fea26469706673582212200f5686a6e85c09cc23708c7185d814285fea4cc727ef56b62fabfb4d6afd40b764736f6c63430008140033",
  "linkReferences": {},
  "deployedLinkReferences": {}
}