{
  "_format": "hh-sol-artifact-1",
  "contractName": "PointsToken",
  "sourceName": "contracts/PointsToken.sol",
  "abi": [
    {
      "inputs": [
        {
          "internalType": "address",
          "name": "_participantRegistry",
          "type": "address"
        },
        {
          "internalType": "address",
          "name": "_couponExchange",
          "type": "address"
        }
      ],
      "stateMutability": "nonpayable",
      "type": "constructor"
    },
    {
      "inputs": [
        {
          "internalType": "address",
          "name": "spender",
          "type": "address"
        },
        {
          "internalType": "uint256",
          "name": "allowance",
          "type": "uint256"
        },
        {
          "internalType": "uint256",
          "name": "needed",
          "type": "uint256"
        }
      ],
      "name": "ERC20InsufficientAllowance",
      "type": "error"
    },
    {
      "inputs": [
        {
          "internalType": "address",
          "name": "sender",
          "type": "address"
        },
        {
          "internalType": "uint256",
          "name": "balance",
          "type": "uint256"
        },
        {
          "internalType": "uint256",
          "name": "needed",
          "type": "uint256"
        }
      ],
      "name": "ERC20InsufficientBalance",
      "type": "error"
    },
    {
      "inputs": [
        {
          "internalType": "address",
          "name": "approver",
          "type": "address"
        }
      ],
      "name": "ERC20InvalidApprover",
      "type": "error"
    },
    {
      "inputs": [
        {
          "internalType": "address",
          "name": "receiver",
          "type": "address"
        }
      ],
      "name": "ERC20InvalidReceiver",
      "type": "error"
    },
    {
      "inputs": [
        {
          "internalType": "address",
          "name": "sender",
          "type": "address"
        }
      ],
      "name": "ERC20InvalidSender",
      "type": "error"
    },
    {
      "inputs": [
        {
          "internalType": "address",
          "name": "spender",
          "type": "address"
        }
      ],
      "name": "ERC20InvalidSpender",
      "type": "error"
    },
    {
      "inputs": [],
      "name": "EnforcedPause",
      "type": "error"
    },
    {
      "inputs": [],
      "name": "ExpectedPause",
      "type": "error"
    },
    {
      "inputs": [
        {
          "internalType": "address",
          "name": "owner",
          "type": "address"
        }
      ],
      "name": "OwnableInvalidOwner",
      "type": "error"
    },
    {
      "inputs": [
        {
          "internalType": "address",
          "name": "account",
          "type": "address"
        }
      ],
      "name": "OwnableUnauthorizedAccount",
      "type": "error"
    },
    {
      "inputs": [],
      "name": "ReentrancyGuardReentrantCall",
      "type": "error"
    },
    {
      "anonymous": false,
      "inputs": [
        {
          "indexed": true,
          "internalType": "address",
          "name": "owner",
          "type": "address"
        },
        {
          "indexed": true,
          "internalType": "address",
          "name": "spender",
          "type": "address"
        },
        {
          "indexed": false,
          "internalType": "uint256",
          "name": "value",
          "type": "uint256"
        }
      ],
      "name": "Approval",
      "type": "event"
    },
    {
      "anonymous": false,
      "inputs": [
        {
          "indexed": true,
          "internalType": "address",
          "name": "previousOwner",
          "type": "address"
        },
        {
          "indexed": true,
          "internalType": "address",
          "name": "newOwner",
          "type": "address"
        }
      ],
      "name": "OwnershipTransferred",
      "type": "event"
    },
    {
      "anonymous": false,
      "inputs": [
        {
          "indexed": false,
          "internalType": "address",
          "name": "account",
          "type": "address"
        }
      ],
      "name": "Paused",
      "type": "event"
    },
    {
      "anonymous": false,
      "inputs": [
        {
          "indexed": true,
          "internalType": "address",
          "name": "from",
          "type": "address"
        },
        {
          "indexed": false,
          "internalType": "uint256",
          "name": "amount",
          "type": "uint256"
        },
        {
          "indexed": false,
          "internalType": "string",
          "name": "reason",
          "type": "string"
        }
      ],
      "name": "PointsBurned",
      "type": "event"
    },
    {
      "anonymous": false,
      "inputs": [
        {
          "indexed": true,
          "internalType": "address",
          "name": "to",
          "type": "address"
        },
        {
          "indexed": false,
          "internalType": "uint256",
          "name": "amount",
          "type": "uint256"
        },
        {
          "indexed": false,
          "internalType": "string",
          "name": "reason",
          "type": "string"
        }
      ],
      "name": "PointsMinted",
      "type": "event"
    },
    {
      "anonymous": false,
      "inputs": [
        {
          "indexed": true,
          "internalType": "address",
          "name": "from",
          "type": "address"
        },
        {
          "indexed": true,
          "internalType": "address",
          "name": "to",
          "type": "address"
        },
        {
          "indexed": false,
          "internalType": "uint256",
          "name": "amount",
          "type": "uint256"
        }
      ],
      "name": "PointsTransferred",
      "type": "event"
    },
    {
      "anonymous": false,
      "inputs": [
        {
          "indexed": true,
          "internalType": "address",
          "name": "from",
          "type": "address"
        },
        {
          "indexed": true,
          "internalType": "address",
          "name": "to",
          "type": "address"
        },
        {
          "indexed": false,
          "internalType": "uint256",
          "name": "value",
          "type": "uint256"
        }
      ],
      "name": "Transfer",
      "type": "event"
    },
    {
      "anonymous": false,
      "inputs": [
        {
          "indexed": false,
          "internalType": "address",
          "name": "account",
          "type": "address"
        }
      ],
      "name": "Unpaused",
      "type": "event"
    },
    {
      "inputs": [],
      "name": "DECIMALS",
      "outputs": [
        {
          "internalType": "uint8",
          "name": "",
          "type": "uint8"
        }
      ],
      "stateMutability": "view",
      "type": "function"
    },
    {
      "inputs": [],
      "name": "POINTS_NAME",
      "outputs": [
        {
          "internalType": "string",
          "name": "",
          "type": "string"
        }
      ],
      "stateMutability": "view",
      "type": "function"
    },
    {
      "inputs": [],
      "name": "POINTS_SYMBOL",
      "outputs": [
        {
          "internalType": "string",
          "name": "",
          "type": "string"
        }
      ],
      "stateMutability": "view",
      "type": "function"
    },
    {
      "inputs": [
        {
          "internalType": "address",
          "name": "owner",
          "type": "address"
        },
        {
          "internalType": "address",
          "name": "spender",
          "type": "address"
        }
      ],
      "name": "allowance",
      "outputs": [
        {
          "internalType": "uint256",
          "name": "",
          "type": "uint256"
        }
      ],
      "stateMutability": "view",
      "type": "function"
    },
    {
      "inputs": [
        {
          "internalType": "address",
          "name": "spender",
          "type": "address"
        },
        {
          "internalType": "uint256",
          "name": "amount",
          "type": "uint256"
        }
      ],
      "name": "approve",
      "outputs": [
        {
          "internalType": "bool",
          "name": "",
          "type": "bool"
        }
      ],
      "stateMutability": "nonpayable",
      "type": "function"
    },
    {
      "inputs": [
        {
          "internalType": "address",
          "name": "account",
          "type": "address"
        }
      ],
      "name": "balanceOf",
      "outputs": [
        {
          "internalType": "uint256",
          "name": "",
          "type": "uint256"
        }
      ],
      "stateMutability": "view",
      "type": "function"
    },
    {
      "inputs": [
        {
          "internalType": "address",
          "name": "from",
          "type": "address"
        },
        {
          "internalType": "uint256",
          "name": "amount",
          "type": "uint256"
        },
        {
          "internalType": "string",
          "name": "reason",
          "type": "string"
        }
      ],
      "name": "burn",
      "outputs": [],
      "stateMutability": "nonpayable",
      "type": "function"
    },
    {
      "inputs": [],
      "name": "couponExchange",
      "outputs": [
        {
          "internalType": "address",
          "name": "",
          "type": "address"
        }
      ],
      "stateMutability": "view",
      "type": "function"
    },
    {
      "inputs": [],
      "name": "decimals",
      "outputs": [
        {
          "internalType": "uint8",
          "name": "",
          "type": "uint8"
        }
      ],
      "stateMutability": "view",
      "type": "function"
    },
    {
      "inputs": [
        {
          "internalType": "address",
          "name": "spender",
          "type": "address"
        },
        {
          "internalType": "uint256",
          "name": "subtractedValue",
          "type": "uint256"
        }
      ],
      "name": "decreaseAllowance",
      "outputs": [
        {
          "internalType": "bool",
          "name": "",
          "type": "bool"
        }
      ],
      "stateMutability": "nonpayable",
      "type": "function"
    },
    {
      "inputs": [
        {
          "internalType": "address",
          "name": "account",
          "type": "address"
        }
      ],
      "name": "getBalance",
      "outputs": [
        {
          "internalType": "uint256",
          "name": "",
          "type": "uint256"
        }
      ],
      "stateMutability": "view",
      "type": "function"
    },
    {
      "inputs": [
        {
          "internalType": "address",
          "name": "account",
          "type": "address"
        },
        {
          "internalType": "uint256",
          "name": "fromTime",
          "type": "uint256"
        },
        {
          "internalType": "uint256",
          "name": "toTime",
          "type": "uint256"
        }
      ],
      "name": "getPointsEarnedInRange",
      "outputs": [
        {
          "internalType": "uint256",
          "name": "",
          "type": "uint256"
        }
      ],
      "stateMutability": "view",
      "type": "function"
    },
    {
      "inputs": [],
      "name": "getPointsStats",
      "outputs": [
        {
          "internalType": "uint256",
          "name": "",
          "type": "uint256"
        },
        {
          "internalType": "uint256",
          "name": "",
          "type": "uint256"
        },
        {
          "internalType": "uint256",
          "name": "",
          "type": "uint256"
        }
      ],
      "stateMutability": "view",
      "type": "function"
    },
    {
      "inputs": [
        {
          "internalType": "address",
          "name": "spender",
          "type": "address"
        },
        {
          "internalType": "uint256",
          "name": "addedValue",
          "type": "uint256"
        }
      ],
      "name": "increaseAllowance",
      "outputs": [
        {
          "internalType": "bool",
          "name": "",
          "type": "bool"
        }
      ],
      "stateMutability": "nonpayable",
      "type": "function"
    },
    {
      "inputs": [
        {
          "internalType": "address",
          "name": "to",
          "type": "address"
        },
        {
          "internalType": "uint256",
          "name": "amount",
          "type": "uint256"
        },
        {
          "internalType": "string",
          "name": "reason",
          "type": "string"
        }
      ],
      "name": "mint",
      "outputs": [],
      "stateMutability": "nonpayable",
      "type": "function"
    },
    {
      "inputs": [],
      "name": "name",
      "outputs": [
        {
          "internalType": "string",
          "name": "",
          "type": "string"
        }
      ],
      "stateMutability": "view",
      "type": "function"
    },
    {
      "inputs": [],
      "name": "owner",
      "outputs": [
        {
          "internalType": "address",
          "name": "",
          "type": "address"
        }
      ],
      "stateMutability": "view",
      "type": "function"
    },
    {
      "inputs": [],
      "name": "participantRegistry",
      "outputs": [
        {
          "internalType": "address",
          "name": "",
          "type": "address"
        }
      ],
      "stateMutability": "view",
      "type": "function"
    },
    {
      "inputs": [],
      "name": "pause",
      "outputs": [],
      "stateMutability": "nonpayable",
      "type": "function"
    },
    {
      "inputs": [],
      "name": "paused",
      "outputs": [
        {
          "internalType": "bool",
          "name": "",
          "type": "bool"
        }
      ],
      "stateMutability": "view",
      "type": "function"
    },
    {
      "inputs": [],
      "name": "renounceOwnership",
      "outputs": [],
      "stateMutability": "nonpayable",
      "type": "function"
    },
    {
      "inputs": [],
      "name": "symbol",
      "outputs": [
        {
          "internalType": "string",
          "name": "",
          "type": "string"
        }
      ],
      "stateMutability": "view",
      "type": "function"
    },
    {
      "inputs": [],
      "name": "totalSupply",
      "outputs": [
        {
          "internalType": "uint256",
          "name": "",
          "type": "uint256"
        }
      ],
      "stateMutability": "view",
      "type": "function"
    },
    {
      "inputs": [
        {
          "internalType": "address",
          "name": "to",
          "type": "address"
        },
        {
          "internalType": "uint256",
          "name": "amount",
          "type": "uint256"
        }
      ],
      "name": "transfer",
      "outputs": [
        {
          "internalType": "bool",
          "name": "",
          "type": "bool"
        }
      ],
      "stateMutability": "nonpayable",
      "type": "function"
    },
    {
      "inputs": [
        {
          "internalType": "address",
          "name": "from",
          "type": "address"
        },
        {
          "internalType": "address",
          "name": "to",
          "type": "address"
        },
        {
          "internalType": "uint256",
          "name": "amount",
          "type": "uint256"
        }
      ],
      "name": "transferFrom",
      "outputs": [
        {
          "internalType": "bool",
          "name": "",
          "type": "bool"
        }
      ],
      "stateMutability": "nonpayable",
      "type": "function"
    },
    {
      "inputs": [
        {
          "internalType": "address",
          "name": "newOwner",
          "type": "address"
        }
      ],
      "name": "transferOwnership",
      "outputs": [],
      "stateMutability": "nonpayable",
      "type": "function"
    },
    {
      "inputs": [
        {
          "internalType": "address",
          "name": "from",
          "type": "address"
        },
        {
          "internalType": "address",
          "name": "to",
          "type": "address"
        },
        {
          "internalType": "uint256",
          "name": "amount",
          "type": "uint256"
        }
      ],
      "name": "transferPoints",
      "outputs": [],
      "stateMutability": "nonpayable",
      "type": "function"
    },
    {
      "inputs": [],
      "name": "unpause",
      "outputs": [],
      "stateMutability": "nonpayable",
      "type": "function"
    },
    {
      "inputs": [
        {
          "internalType": "address",
          "name": "_participantRegistry",
          "type": "address"
        },
        {
          "internalType": "address",
          "name": "_couponExchange",
          "type": "address"
        }
      ],
      "name": "updateContractAddresses",
      "outputs": [],
      "stateMutability": "nonpayable",
      "type": "function"
    }
  ],
  "bytecode": "0x60806040523480156200001157600080fd5b50604051620015fa380380620015fa83398101604081905262000034916200017f565b3360405180604001604052806011815260200170477265656e436861696e20506f696e747360781b8152506040518060400160405280600381526020016204743560ec1b81525081600390816200008c91906200025c565b5060046200009b82826200025c565b5050506001600160a01b038116620000cd57604051631e4fbdf760e01b81526000600482015260240160405180910390fd5b620000d88162000110565b506001600655600780546001600160a01b039384166001600160a01b0319918216179091556008805492909316911617905562000328565b600580546001600160a01b038381166001600160a01b0319831681179093556040519116919082907f8be0079c531659141344cd1fd0a4f28419497f9722a3daafe3b4186f6b6457e090600090a35050565b80516001600160a01b03811681146200017a57600080fd5b919050565b600080604083850312156200019357600080fd5b6200019e8362000162565b9150620001ae6020840162000162565b90509250929050565b634e487b7160e01b600052604160045260246000fd5b600181811c90821680620001e257607f821691505b6020821081036200020357634e487b7160e01b600052602260045260246000fd5b50919050565b601f8211156200025757600081815260208120601f850160051c81016020861015620002325750805b601f850160051c820191505b8181101562000253578281556001016200023e565b5050505b505050565b81516001600160401b03811115620002785762000278620001b7565b6200029081620002898454620001cd565b8462000209565b602080601f831160018114620002c85760008415620002af5750858301515b600019600386901b1c1916600185901b17855562000253565b600085815260208120601f198616915b82811015620002f957888601518255948401946001909101908401620002d8565b5085821015620003185787850151600019600388901b60f8161c191681555b5050505050600190811b01905550565b6112c280620003386000396000f3fe608060405234801561001057600080fd5b50600436106101cf5760003560e01c80636b1c09fe11610104578063a457c2d7116100a2578063dd62ed3e11610071578063dd62ed3e146103d7578063f2fde38b14610410578063f8b2cb4f14610423578063f8fce5331461043657600080fd5b8063a457c2d7146102b2578063a8fe119d14610394578063a9059cbb146103b6578063d3fc9864146103c457600080fd5b80638456cb59116100de5780638456cb59146103605780638da5cb5b1461036857806395d89b41146103795780639e9ca5911461038157600080fd5b80636b1c09fe1461031557806370a0823114610345578063715018a61461035857600080fd5b8063313ce567116101715780633df180561161014b5780633df18056146102c55780633f4ba83a146102e85780635be8a8d1146102f05780635c975abb1461030357600080fd5b8063313ce5671461028057806337878b941461028757806339509351146102b257600080fd5b806318160ddd116101ad57806318160ddd1461022a5780631ff6dc5b1461024057806323b872dd146102535780632e0f26251461026657600080fd5b806306fdde03146101d4578063095ea7b3146101f257806315f570dc14610215575b600080fd5b6101dc610449565b6040516101e99190610fbb565b60405180910390f35b610205610200366004610ff1565b6104db565b60405190151581526020016101e9565b610228610223366004611031565b61053d565b005b6102326106f3565b6040519081526020016101e9565b61022861024e3660046110fc565b610703565b61020561026136600461112f565b610739565b61026e601281565b60405160ff90911681526020016101e9565b601261026e565b60085461029a906001600160a01b031681565b6040516001600160a01b0390911681526020016101e9565b6102056102c0366004610ff1565b6107a1565b6102cd6107ff565b604080519384526020840192909252908201526060016101e9565b610228610821565b6102326102fe36600461116b565b610833565b600554600160a01b900460ff16610205565b6101dc60405180604001604052806011815260200170477265656e436861696e20506f696e747360781b81525081565b61023261035336600461119e565b610846565b610228610866565b610228610878565b6005546001600160a01b031661029a565b6101dc610888565b60075461029a906001600160a01b031681565b6101dc6040518060400160405280600381526020016204743560ec1b81525081565b610205610261366004610ff1565b6102286103d2366004611031565b610897565b6102326103e53660046110fc565b6001600160a01b03918216600090815260016020908152604080832093909416825291909152205490565b61022861041e36600461119e565b6109f1565b61023261043136600461119e565b610a2f565b61022861044436600461112f565b610a3a565b606060038054610458906111b9565b80601f0160208091040260200160405190810160405280929190818152602001828054610484906111b9565b80156104d15780601f106104a6576101008083540402835291602001916104d1565b820191906000526020600020905b8154815290600101906020018083116104b457829003601f168201915b5050505050905090565b60405162461bcd60e51b815260206004820152602960248201527f417070726f76616c732064697361626c656420666f7220477265656e4368616960448201526837102837b4b73a399760b91b60648201526000906084015b60405180910390fd5b6005546001600160a01b031633148061056057506007546001600160a01b031633145b8061057557506008546001600160a01b031633145b6105915760405162461bcd60e51b8152600401610534906111f3565b610599610c18565b6001600160a01b0383166105ef5760405162461bcd60e51b815260206004820152601d60248201527f43616e6e6f74206275726e2066726f6d207a65726f20616464726573730000006044820152606401610534565b6000821161060f5760405162461bcd60e51b81526004016105349061121b565b8161061984610846565b101561065e5760405162461bcd60e51b8152602060048201526014602482015273496e73756666696369656e742062616c616e636560601b6044820152606401610534565b60008151116106a15760405162461bcd60e51b815260206004820152600f60248201526e1499585cdbdb881c995c5d5a5c9959608a1b6044820152606401610534565b6106ab8383610c43565b826001600160a01b03167ff58c5544ac33de33696e1491d3a1a718888fe5409eca3eee52772780fc42b17583836040516106e6929190611252565b60405180910390a2505050565b60006106fe60025490565b905090565b61070b610c7d565b600780546001600160a01b039384166001600160a01b03199182161790915560088054929093169116179055565b60405162461bcd60e51b815260206004820152603460248201527f446972656374207472616e73666572732064697361626c65642e2055736520616044820152733aba3437b934bd32b21031b7b73a3930b1ba399760611b6064820152600090608401610534565b60405162461bcd60e51b815260206004820152602a60248201527f416c6c6f77616e6365732064697361626c656420666f7220477265656e43686160448201526934b7102837b4b73a399760b11b6064820152600090608401610534565b600080600061080c6106f3565b60006108166106f3565b925092509250909192565b610829610c7d565b610831610caa565b565b600061083e84610846565b949350505050565b6001600160a01b0381166000908152602081905260408120545b92915050565b61086e610c7d565b6108316000610cff565b610880610c7d565b610831610d51565b606060048054610458906111b9565b6005546001600160a01b03163314806108ba57506007546001600160a01b031633145b806108cf57506008546001600160a01b031633145b6108eb5760405162461bcd60e51b8152600401610534906111f3565b6108f3610c18565b6001600160a01b0383166109495760405162461bcd60e51b815260206004820152601b60248201527f43616e6e6f74206d696e7420746f207a65726f206164647265737300000000006044820152606401610534565b600082116109695760405162461bcd60e51b81526004016105349061121b565b60008151116109ac5760405162461bcd60e51b815260206004820152600f60248201526e1499585cdbdb881c995c5d5a5c9959608a1b6044820152606401610534565b6109b68383610d94565b826001600160a01b03167fb95aa9119a05c62b8c895f526922b736552ac755e7a2900cfe222b0c542b963d83836040516106e6929190611252565b6109f9610c7d565b6001600160a01b038116610a2357604051631e4fbdf760e01b815260006004820152602401610534565b610a2c81610cff565b50565b600061086082610846565b6005546001600160a01b0316331480610a5d57506007546001600160a01b031633145b80610a7257506008546001600160a01b031633145b610a8e5760405162461bcd60e51b8152600401610534906111f3565b610a96610c18565b6001600160a01b038316610af65760405162461bcd60e51b815260206004820152602160248201527f43616e6e6f74207472616e736665722066726f6d207a65726f206164647265736044820152607360f81b6064820152608401610534565b6001600160a01b038216610b4c5760405162461bcd60e51b815260206004820152601f60248201527f43616e6e6f74207472616e7366657220746f207a65726f2061646472657373006044820152606401610534565b60008111610b6c5760405162461bcd60e51b81526004016105349061121b565b80610b7684610846565b1015610bbb5760405162461bcd60e51b8152602060048201526014602482015273496e73756666696369656e742062616c616e636560601b6044820152606401610534565b610bc6838383610dca565b816001600160a01b0316836001600160a01b03167f8368079d4813055221156198c714ea6a6742cfcec7c979383b0085e1cc738dc083604051610c0b91815260200190565b60405180910390a3505050565b600554600160a01b900460ff16156108315760405163d93c066560e01b815260040160405180910390fd5b6001600160a01b038216610c6d57604051634b637e8f60e11b815260006004820152602401610534565b610c7982600083610e2e565b5050565b6005546001600160a01b031633146108315760405163118cdaa760e01b8152336004820152602401610534565b610cb2610f4b565b6005805460ff60a01b191690557f5db9ee0a495bf2e6ff9c91a7834c1ba4fdd244a5e8aa4e537bd38aeae4b073aa335b6040516001600160a01b03909116815260200160405180910390a1565b600580546001600160a01b038381166001600160a01b0319831681179093556040519116919082907f8be0079c531659141344cd1fd0a4f28419497f9722a3daafe3b4186f6b6457e090600090a35050565b610d59610c18565b6005805460ff60a01b1916600160a01b1790557f62e78cea01bee320cd4e420270b5ea74000d11b0c9f74754ebdbfc544b05a258610ce23390565b6001600160a01b038216610dbe5760405163ec442f0560e01b815260006004820152602401610534565b610c7960008383610e2e565b6001600160a01b038316610df457604051634b637e8f60e11b815260006004820152602401610534565b6001600160a01b038216610e1e5760405163ec442f0560e01b815260006004820152602401610534565b610e29838383610e2e565b505050565b6001600160a01b038316610e59578060026000828254610e4e919061126b565b90915550610ecb9050565b6001600160a01b03831660009081526020819052604090205481811015610eac5760405163391434e360e21b81526001600160a01b03851660048201526024810182905260448101839052606401610534565b6001600160a01b03841660009081526020819052604090209082900390555b6001600160a01b038216610ee757600280548290039055610f06565b6001600160a01b03821660009081526020819052604090208054820190555b816001600160a01b0316836001600160a01b03167fddf252ad1be2c89b69c2b068fc378daa952ba7f163c4a11628f55a4df523b3ef83604051610c0b91815260200190565b600554600160a01b900460ff1661083157604051638dfc202b60e01b815260040160405180910390fd5b6000815180845260005b81811015610f9b57602081850181015186830182015201610f7f565b506000602082860101526020601f19601f83011685010191505092915050565b602081526000610fce6020830184610f75565b9392505050565b80356001600160a01b0381168114610fec57600080fd5b919050565b6000806040838503121561100457600080fd5b61100d83610fd5565b946020939093013593505050565b634e487b7160e01b600052604160045260246000fd5b60008060006060848603121561104657600080fd5b61104f84610fd5565b925060208401359150604084013567ffffffffffffffff8082111561107357600080fd5b818601915086601f83011261108757600080fd5b8135818111156110995761109961101b565b604051601f8201601f19908116603f011681019083821181831017156110c1576110c161101b565b816040528281528960208487010111156110da57600080fd5b8260208601602083013760006020848301015280955050505050509250925092565b6000806040838503121561110f57600080fd5b61111883610fd5565b915061112660208401610fd5565b90509250929050565b60008060006060848603121561114457600080fd5b61114d84610fd5565b925061115b60208501610fd5565b9150604084013590509250925092565b60008060006060848603121561118057600080fd5b61118984610fd5565b95602085013595506040909401359392505050565b6000602082840312156111b057600080fd5b610fce82610fd5565b600181811c908216806111cd57607f821691505b6020821081036111ed57634e487b7160e01b600052602260045260246000fd5b50919050565b6020808252600e908201526d139bdd08185d5d1a1bdc9a5e995960921b604082015260600190565b6020808252601d908201527f416d6f756e74206d7573742062652067726561746572207468616e2030000000604082015260600190565b82815260406020820152600061083e6040830184610f75565b8082018082111561086057634e487b7160e01b600052601160045260246000fdfea26469706673582212209f07168423ec9d95383b511293f60e158eaf59ac1214d624cc66233e1913edb164736f6c63430008140033",
  "linkReferences": {},
  "deployedLinkReferences": {}
}