{
  "_format": "hh-sol-artifact-1",
  "contractName": "TierManager",
  "sourceName": "contracts/TierManager.sol",
  "abi": [
    {
      "inputs": [
        {
          "internalType": "address",
          "name": "_participantRegistry",
          "type": "address"
        },
        {
          "internalType": "address",
          "name": "_badgeNFT",
          "type": "address"
        }
      ],
      "stateMutability": "nonpayable",
      "type": "constructor"
    },
    {
      "inputs": [],
      "name": "EnforcedPause",
      "type": "error"
    },
    {
      "inputs": [],
      "name": "ExpectedPause",
      "type": "error"
    },
    {
      "inputs": [
        {
          "internalType": "address",
          "name": "owner",
          "type": "address"
        }
      ],
      "name": "OwnableInvalidOwner",
      "type": "error"
    },
    {
      "inputs": [
        {
          "internalType": "address",
          "name": "account",
          "type": "address"
        }
      ],
      "name": "OwnableUnauthorizedAccount",
      "type": "error"
    },
    {
      "anonymous": false,
      "inputs": [
        {
          "indexed": true,
          "internalType": "address",
          "name": "previousOwner",
          "type": "address"
        },
        {
          "indexed": true,
          "internalType": "address",
          "name": "newOwner",
          "type": "address"
        }
      ],
      "name": "OwnershipTransferred",
      "type": "event"
    },
    {
      "anonymous": false,
      "inputs": [
        {
          "indexed": false,
          "internalType": "address",
          "name": "account",
          "type": "address"
        }
      ],
      "name": "Paused",
      "type": "event"
    },
    {
      "anonymous": false,
      "inputs": [
        {
          "indexed": false,
          "internalType": "enum ITierManager.Tier",
          "name": "tier",
          "type": "uint8"
        },
        {
          "components": [
            {
              "internalType": "uint256",
              "name": "minPoints",
              "type": "uint256"
            },
            {
              "internalType": "uint256",
              "name": "maxPoints",
              "type": "uint256"
            },
            {
              "internalType": "uint256",
              "name": "multiplier",
              "type": "uint256"
            },
            {
              "internalType": "uint256",
              "name": "couponBonus",
              "type": "uint256"
            },
            {
              "internalType": "bool",
              "name": "hasPriorityAccess",
              "type": "bool"
            },
            {
              "internalType": "bool",
              "name": "hasExclusiveProjects",
              "type": "bool"
            },
            {
              "internalType": "bool",
              "name": "hasVipAccess",
              "type": "bool"
            },
            {
              "internalType": "string",
              "name": "badgeURI",
              "type": "string"
            }
          ],
          "indexed": false,
          "internalType": "struct ITierManager.TierInfo",
          "name": "tierInfo",
          "type": "tuple"
        }
      ],
      "name": "TierConfigUpdated",
      "type": "event"
    },
    {
      "anonymous": false,
      "inputs": [
        {
          "indexed": true,
          "internalType": "address",
          "name": "wallet",
          "type": "address"
        },
        {
          "indexed": false,
          "internalType": "enum ITierManager.Tier",
          "name": "oldTier",
          "type": "uint8"
        },
        {
          "indexed": false,
          "internalType": "enum ITierManager.Tier",
          "name": "newTier",
          "type": "uint8"
        },
        {
          "indexed": false,
          "internalType": "uint256",
          "name": "points",
          "type": "uint256"
        }
      ],
      "name": "TierUpgraded",
      "type": "event"
    },
    {
      "anonymous": false,
      "inputs": [
        {
          "indexed": false,
          "internalType": "address",
          "name": "account",
          "type": "address"
        }
      ],
      "name": "Unpaused",
      "type": "event"
    },
    {
      "inputs": [],
      "name": "badgeNFT",
      "outputs": [
        {
          "internalType": "address",
          "name": "",
          "type": "address"
        }
      ],
      "stateMutability": "view",
      "type": "function"
    },
    {
      "inputs": [
        {
          "internalType": "uint256",
          "name": "points",
          "type": "uint256"
        }
      ],
      "name": "calculateTier",
      "outputs": [
        {
          "internalType": "enum ITierManager.Tier",
          "name": "",
          "type": "uint8"
        }
      ],
      "stateMutability": "pure",
      "type": "function"
    },
    {
      "inputs": [
        {
          "internalType": "uint256",
          "name": "currentPoints",
          "type": "uint256"
        },
        {
          "internalType": "enum ITierManager.Tier",
          "name": "currentTier",
          "type": "uint8"
        }
      ],
      "name": "checkTierUpgrade",
      "outputs": [
        {
          "internalType": "bool",
          "name": "eligible",
          "type": "bool"
        },
        {
          "internalType": "enum ITierManager.Tier",
          "name": "nextTier",
          "type": "uint8"
        },
        {
          "internalType": "uint256",
          "name": "pointsNeeded",
          "type": "uint256"
        }
      ],
      "stateMutability": "view",
      "type": "function"
    },
    {
      "inputs": [
        {
          "internalType": "enum ITierManager.Tier",
          "name": "currentTier",
          "type": "uint8"
        }
      ],
      "name": "getNextTierRequirements",
      "outputs": [
        {
          "internalType": "uint256",
          "name": "",
          "type": "uint256"
        }
      ],
      "stateMutability": "view",
      "type": "function"
    },
    {
      "inputs": [
        {
          "internalType": "enum ITierManager.Tier",
          "name": "tier",
          "type": "uint8"
        }
      ],
      "name": "getTierBenefits",
      "outputs": [
        {
          "internalType": "string",
          "name": "",
          "type": "string"
        }
      ],
      "stateMutability": "view",
      "type": "function"
    },
    {
      "inputs": [
        {
          "internalType": "enum ITierManager.Tier",
          "name": "tier",
          "type": "uint8"
        }
      ],
      "name": "getTierCouponBonus",
      "outputs": [
        {
          "internalType": "uint256",
          "name": "",
          "type": "uint256"
        }
      ],
      "stateMutability": "view",
      "type": "function"
    },
    {
      "inputs": [
        {
          "internalType": "enum ITierManager.Tier",
          "name": "tier",
          "type": "uint8"
        }
      ],
      "name": "getTierInfo",
      "outputs": [
        {
          "components": [
            {
              "internalType": "uint256",
              "name": "minPoints",
              "type": "uint256"
            },
            {
              "internalType": "uint256",
              "name": "maxPoints",
              "type": "uint256"
            },
            {
              "internalType": "uint256",
              "name": "multiplier",
              "type": "uint256"
            },
            {
              "internalType": "uint256",
              "name": "couponBonus",
              "type": "uint256"
            },
            {
              "internalType": "bool",
              "name": "hasPriorityAccess",
              "type": "bool"
            },
            {
              "internalType": "bool",
              "name": "hasExclusiveProjects",
              "type": "bool"
            },
            {
              "internalType": "bool",
              "name": "hasVipAccess",
              "type": "bool"
            },
            {
              "internalType": "string",
              "name": "badgeURI",
              "type": "string"
            }
          ],
          "internalType": "struct ITierManager.TierInfo",
          "name": "",
          "type": "tuple"
        }
      ],
      "stateMutability": "view",
      "type": "function"
    },
    {
      "inputs": [
        {
          "internalType": "enum ITierManager.Tier",
          "name": "tier",
          "type": "uint8"
        }
      ],
      "name": "getTierMultiplier",
      "outputs": [
        {
          "internalType": "uint256",
          "name": "",
          "type": "uint256"
        }
      ],
      "stateMutability": "view",
      "type": "function"
    },
    {
      "inputs": [
        {
          "internalType": "enum ITierManager.Tier",
          "name": "tier",
          "type": "uint8"
        }
      ],
      "name": "hasExclusiveAccess",
      "outputs": [
        {
          "internalType": "bool",
          "name": "",
          "type": "bool"
        }
      ],
      "stateMutability": "view",
      "type": "function"
    },
    {
      "inputs": [
        {
          "internalType": "enum ITierManager.Tier",
          "name": "tier",
          "type": "uint8"
        }
      ],
      "name": "hasPriorityAccess",
      "outputs": [
        {
          "internalType": "bool",
          "name": "",
          "type": "bool"
        }
      ],
      "stateMutability": "view",
      "type": "function"
    },
    {
      "inputs": [
        {
          "internalType": "enum ITierManager.Tier",
          "name": "tier",
          "type": "uint8"
        }
      ],
      "name": "hasVipAccess",
      "outputs": [
        {
          "internalType": "bool",
          "name": "",
          "type": "bool"
        }
      ],
      "stateMutability": "view",
      "type": "function"
    },
    {
      "inputs": [],
      "name": "owner",
      "outputs": [
        {
          "internalType": "address",
          "name": "",
          "type": "address"
        }
      ],
      "stateMutability": "view",
      "type": "function"
    },
    {
      "inputs": [],
      "name": "participantRegistry",
      "outputs": [
        {
          "internalType": "address",
          "name": "",
          "type": "address"
        }
      ],
      "stateMutability": "view",
      "type": "function"
    },
    {
      "inputs": [],
      "name": "pause",
      "outputs": [],
      "stateMutability": "nonpayable",
      "type": "function"
    },
    {
      "inputs": [],
      "name": "paused",
      "outputs": [
        {
          "internalType": "bool",
          "name": "",
          "type": "bool"
        }
      ],
      "stateMutability": "view",
      "type": "function"
    },
    {
      "inputs": [],
      "name": "renounceOwnership",
      "outputs": [],
      "stateMutability": "nonpayable",
      "type": "function"
    },
    {
      "inputs": [
        {
          "internalType": "address",
          "name": "newOwner",
          "type": "address"
        }
      ],
      "name": "transferOwnership",
      "outputs": [],
      "stateMutability": "nonpayable",
      "type": "function"
    },
    {
      "inputs": [],
      "name": "unpause",
      "outputs": [],
      "stateMutability": "nonpayable",
      "type": "function"
    },
    {
      "inputs": [
        {
          "internalType": "address",
          "name": "_participantRegistry",
          "type": "address"
        },
        {
          "internalType": "address",
          "name": "_badgeNFT",
          "type": "address"
        }
      ],
      "name": "updateContractAddresses",
      "outputs": [],
      "stateMutability": "nonpayable",
      "type": "function"
    },
    {
      "inputs": [
        {
          "internalType": "enum ITierManager.Tier",
          "name": "tier",
          "type": "uint8"
        },
        {
          "components": [
            {
              "internalType": "uint256",
              "name": "minPoints",
              "type": "uint256"
            },
            {
              "internalType": "uint256",
              "name": "maxPoints",
              "type": "uint256"
            },
            {
              "internalType": "uint256",
              "name": "multiplier",
              "type": "uint256"
            },
            {
              "internalType": "uint256",
              "name": "couponBonus",
              "type": "uint256"
            },
            {
              "internalType": "bool",
              "name": "hasPriorityAccess",
              "type": "bool"
            },
            {
              "internalType": "bool",
              "name": "hasExclusiveProjects",
              "type": "bool"
            },
            {
              "internalType": "bool",
              "name": "hasVipAccess",
              "type": "bool"
            },
            {
              "internalType": "string",
              "name": "badgeURI",
              "type": "string"
            }
          ],
          "internalType": "struct ITierManager.TierInfo",
          "name": "tierInfo",
          "type": "tuple"
        }
      ],
      "name": "updateTierConfig",
      "outputs": [],
      "stateMutability": "nonpayable",
      "type": "function"
    },
    {
      "inputs": [
        {
          "internalType": "address",
          "name": "participantAddress",
          "type": "address"
        },
        {
          "internalType": "enum ITierManager.Tier",
          "name": "newTier",
          "type": "uint8"
        }
      ],
      "name": "upgradeTier",
      "outputs": [],
      "stateMutability": "nonpayable",
      "type": "function"
    }
  ],
  "bytecode": "0x60806040523480156200001157600080fd5b506040516200212b3803806200212b833981016040819052620000349162000624565b33806200005b57604051631e4fbdf760e01b81526000600482015260240160405180910390fd5b6200006681620000a9565b50600280546001600160a01b038085166001600160a01b0319928316179092556003805492841692909116919091179055620000a1620000f9565b5050620007e2565b600080546001600160a01b038381166001600160a01b0319831681178455604051919092169283917f8be0079c531659141344cd1fd0a4f28419497f9722a3daafe3b4186f6b6457e09190a35050565b604051806101000160405280600081526020016103e7815260200160648152602001600081526020016000151581526020016000151581526020016000151581526020016040518060400160405280601781526020017f697066733a2f2f516d42726f6e7a654261646765555249000000000000000000815250815250600160008060038111156200018f576200018f6200065c565b6003811115620001a357620001a36200065c565b8152602080820192909252604090810160002083518155918301516001830155820151600282015560608201516003820155608082015160048201805460a085015160c08601511515620100000262ff0000199115156101000261ff00199515159590951661ffff1990931692909217939093179290921691909117905560e0820151600582019062000237908262000716565b509050506040518061010001604052806103e88152602001611387815260200160788152602001600a81526020016001151581526020016000151581526020016000151581526020016040518060400160405280601781526020017f697066733a2f2f516d53696c76657242616467655552490000000000000000008152508152506001600060016003811115620002d357620002d36200065c565b6003811115620002e757620002e76200065c565b8152602080820192909252604090810160002083518155918301516001830155820151600282015560608201516003820155608082015160048201805460a085015160c08601511515620100000262ff0000199115156101000261ff00199515159590951661ffff1990931692909217939093179290921691909117905560e082015160058201906200037b908262000716565b509050506040518061010001604052806113888152602001614e1f815260200160968152602001601481526020016001151581526020016001151581526020016000151581526020016040518060400160405280601581526020017f697066733a2f2f516d476f6c644261646765555249000000000000000000000081525081525060016000600260038111156200041757620004176200065c565b60038111156200042b576200042b6200065c565b8152602080820192909252604090810160002083518155918301516001830155820151600282015560608201516003820155608082015160048201805460a085015160c08601511515620100000262ff0000199115156101000261ff00199515159590951661ffff1990931692909217939093179290921691909117905560e08201516005820190620004bf908262000716565b50905050604051806101000160405280614e208152602001600019815260200160c88152602001601e81526020016001151581526020016001151581526020016001151581526020016040518060400160405280601981526020017f697066733a2f2f516d506c6174696e756d426164676555524900000000000000815250815250600160006003808111156200055a576200055a6200065c565b60038111156200056e576200056e6200065c565b8152602080820192909252604090810160002083518155918301516001830155820151600282015560608201516003820155608082015160048201805460a085015160c08601511515620100000262ff0000199115156101000261ff00199515159590951661ffff1990931692909217939093179290921691909117905560e0820151600582019062000602908262000716565b505050565b80516001600160a01b03811681146200061f57600080fd5b919050565b600080604083850312156200063857600080fd5b620006438362000607565b9150620006536020840162000607565b90509250929050565b634e487b7160e01b600052602160045260246000fd5b634e487b7160e01b600052604160045260246000fd5b600181811c908216806200069d57607f821691505b602082108103620006be57634e487b7160e01b600052602260045260246000fd5b50919050565b601f8211156200060257600081815260208120601f850160051c81016020861015620006ed5750805b601f850160051c820191505b818110156200070e57828155600101620006f9565b505050505050565b81516001600160401b0381111562000732576200073262000672565b6200074a8162000743845462000688565b84620006c4565b602080601f831160018114620007825760008415620007695750858301515b600019600386901b1c1916600185901b1785556200070e565b600085815260208120601f198616915b82811015620007b35788860151825594840194600190910190840162000792565b5085821015620007d25787850151600019600388901b60f8161c191681555b5050505050600190811b01905550565b61193980620007f26000396000f3fe608060405234801561001057600080fd5b50600436106101375760003560e01c80637ed85ff3116100b85780639d9019fc1161007c5780639d9019fc1461028e5780639e9ca591146102ae578063b2080234146102c1578063e1075d4b146102e1578063ece615e3146102f4578063f2fde38b1461030757600080fd5b80637ed85ff3146102205780638456cb591461024057806389108ec6146102485780638da5cb5b1461025b5780638ebe27691461026c57600080fd5b80634b61ef95116100ff5780634b61ef95146101cd57806350647269146101e05780635c975abb146101f3578063715018a6146102055780637d8efde51461020d57600080fd5b8063073a46361461013c5780631ff6dc5b146101645780633f4ba83a1461017957806341e1255a146101815780634348e0e9146101a2575b600080fd5b61014f61014a36600461116d565b61031a565b60405190151581526020015b60405180910390f35b61017761017236600461119f565b610366565b005b61017761039c565b61019461018f36600461116d565b6103ae565b60405190815260200161015b565b6003546101b5906001600160a01b031681565b6040516001600160a01b03909116815260200161015b565b6101776101db3660046112af565b6103f0565b6101946101ee36600461116d565b6105ec565b600054600160a01b900460ff1661014f565b6101776106ae565b61019461021b36600461116d565b6106c0565b61023361022e36600461116d565b610702565b60405161015b9190611446565b610177610888565b610177610256366004611459565b610898565b6000546001600160a01b03166101b5565b61027f61027a366004611483565b6109f0565b60405161015b939291906114de565b6102a161029c36600461116d565b610b4d565b60405161015b9190611502565b6002546101b5906001600160a01b031681565b6102d46102cf366004611515565b610db7565b60405161015b919061152e565b61014f6102ef36600461116d565b610df9565b61014f61030236600461116d565b610e3f565b610177610315366004611542565b610e8a565b600060016000836003811115610332576103326114a6565b6003811115610343576103436114a6565b815260208101919091526040016000206004015462010000900460ff1692915050565b61036e610ec8565b600280546001600160a01b039384166001600160a01b03199182161790915560038054929093169116179055565b6103a4610ec8565b6103ac610ef5565b565b6000600160008360038111156103c6576103c66114a6565b60038111156103d7576103d76114a6565b8152602001908152602001600020600201549050919050565b6103f8610ec8565b60208101518151106104475760405162461bcd60e51b8152602060048201526013602482015272496e76616c696420706f696e742072616e676560681b60448201526064015b60405180910390fd5b60648160400151101561049c5760405162461bcd60e51b815260206004820152601f60248201527f4d756c7469706c696572206d757374206265206174206c656173742031303000604482015260640161043e565b6064816060015111156104f15760405162461bcd60e51b815260206004820152601f60248201527f436f75706f6e20626f6e75732063616e6e6f7420657863656564203130302500604482015260640161043e565b8060016000846003811115610508576105086114a6565b6003811115610519576105196114a6565b8152602080820192909252604090810160002083518155918301516001830155820151600282015560608201516003820155608082015160048201805460a085015160c08601511515620100000262ff0000199115156101000261ff00199515159590951661ffff1990931692909217939093179290921691909117905560e082015160058201906105ab90826115e6565b509050507f306f83100baa6700d3f7061091291e7ef326eb995a9a1cea4441732521b4eef582826040516105e09291906116a6565b60405180910390a15050565b60006003826003811115610602576106026114a6565b0361060f57506000919050565b600080836003811115610624576106246114a6565b036106315750600161066f565b6001836003811115610645576106456114a6565b036106525750600261066f565b6002836003811115610666576106666114a6565b0361066f575060035b60016000826003811115610685576106856114a6565b6003811115610696576106966114a6565b81526020810191909152604001600020549392505050565b6106b6610ec8565b6103ac6000610f4a565b6000600160008360038111156106d8576106d86114a6565b60038111156106e9576106e96114a6565b8152602001908152602001600020600301549050919050565b61075060405180610100016040528060008152602001600081526020016000815260200160008152602001600015158152602001600015158152602001600015158152602001606081525090565b60016000836003811115610766576107666114a6565b6003811115610777576107776114a6565b81526020808201929092526040908101600020815161010080820184528254825260018301549482019490945260028201549281019290925260038101546060830152600481015460ff808216151560808501529381048416151560a0840152620100009004909216151560c082015260058201805491929160e0840191906107ff9061155d565b80601f016020809104026020016040519081016040528092919081815260200182805461082b9061155d565b80156108785780601f1061084d57610100808354040283529160200191610878565b820191906000526020600020905b81548152906001019060200180831161085b57829003601f168201915b5050505050815250509050919050565b610890610ec8565b6103ac610f9a565b6000546001600160a01b03163314806108bb57506002546001600160a01b031633145b6108f85760405162461bcd60e51b815260206004820152600e60248201526d139bdd08185d5d1a1bdc9a5e995960921b604482015260640161043e565b6001600160a01b03821661094e5760405162461bcd60e51b815260206004820152601b60248201527f496e76616c6964207061727469636970616e7420616464726573730000000000604482015260640161043e565b6003816003811115610962576109626114a6565b11156109a55760405162461bcd60e51b8152602060048201526012602482015271125b9d985b1a59081d1a595c881b195d995b60721b604482015260640161043e565b816001600160a01b03167f0b35643a0b38a53cb74da3126b96c42db19b51140bc2498b42396e2c6aa187b360008360006040516109e4939291906116ce565b60405180910390a25050565b600080600080614e208610610a0757506003610a2d565b6113888610610a1857506002610a2d565b6103e88610610a2957506001610a2d565b5060005b846003811115610a3f57610a3f6114a6565b816003811115610a5157610a516114a6565b1115610a67576001935080925060009150610b45565b600093508492506003856003811115610a8257610a826114a6565b03610a905760009150610b45565b6000856003811115610aa457610aa46114a6565b03610ad95760016000815b6003811115610ac057610ac06114a6565b8152602001908152602001600020600001549150610b45565b6001856003811115610aed57610aed6114a6565b03610afd57600160006002610aaf565b6002856003811115610b1157610b116114a6565b03610b4557600360005260016020527f7dfe757ecd65cbd7922a9c0161e935dd7fdbcc0e999689c7d31633896b1fc60b5491505b509250925092565b6060600060016000846003811115610b6757610b676114a6565b6003811115610b7857610b786114a6565b81526020808201929092526040908101600020815161010080820184528254825260018301549482019490945260028201549281019290925260038101546060830152600481015460ff808216151560808501529381048416151560a0840152620100009004909216151560c082015260058201805491929160e084019190610c009061155d565b80601f0160208091040260200160405190810160405280929190818152602001828054610c2c9061155d565b8015610c795780601f10610c4e57610100808354040283529160200191610c79565b820191906000526020600020905b815481529060010190602001808311610c5c57829003601f168201915b50505050508152505090506000604051806020016040528060008152509050606482604001511115610cee5780610ccb606484604001516064610cbc91906116ff565b610cc69190611716565b610fdd565b604051602001610cdc929190611738565b60405160208183030381529060405290505b606082015115610d295780610d068360600151610fdd565b604051602001610d17929190611796565b60405160208183030381529060405290505b816080015115610d565780604051602001610d4491906117f0565b60405160208183030381529060405290505b8160a0015115610d835780604051602001610d719190611831565b60405160208183030381529060405290505b8160c0015115610db05780604051602001610d9e9190611872565b60405160208183030381529060405290505b9392505050565b6000614e208210610dca57506003919050565b6113888210610ddb57506002919050565b6103e88210610dec57506001919050565b506000919050565b919050565b600060016000836003811115610e1157610e116114a6565b6003811115610e2257610e226114a6565b815260208101919091526040016000206004015460ff1692915050565b600060016000836003811115610e5757610e576114a6565b6003811115610e6857610e686114a6565b8152602081019190915260400160002060040154610100900460ff1692915050565b610e92610ec8565b6001600160a01b038116610ebc57604051631e4fbdf760e01b81526000600482015260240161043e565b610ec581610f4a565b50565b6000546001600160a01b031633146103ac5760405163118cdaa760e01b815233600482015260240161043e565b610efd611109565b6000805460ff60a01b191690557f5db9ee0a495bf2e6ff9c91a7834c1ba4fdd244a5e8aa4e537bd38aeae4b073aa335b6040516001600160a01b03909116815260200160405180910390a1565b600080546001600160a01b038381166001600160a01b0319831681178455604051919092169283917f8be0079c531659141344cd1fd0a4f28419497f9722a3daafe3b4186f6b6457e09190a35050565b610fa2611133565b6000805460ff60a01b1916600160a01b1790557f62e78cea01bee320cd4e420270b5ea74000d11b0c9f74754ebdbfc544b05a258610f2d3390565b6060816000036110045750506040805180820190915260018152600360fc1b602082015290565b8160005b811561102e5780611018816118a8565b91506110279050600a83611716565b9150611008565b60008167ffffffffffffffff811115611049576110496111d2565b6040519080825280601f01601f191660200182016040528015611073576020820181803683370190505b509050815b8515611100576110896001826118c1565b90506000611098600a88611716565b6110a390600a6116ff565b6110ad90886118c1565b6110b89060306118d4565b905060008160f81b9050808484815181106110d5576110d56118ed565b60200101906001600160f81b031916908160001a9053506110f7600a89611716565b97505050611078565b50949350505050565b600054600160a01b900460ff166103ac57604051638dfc202b60e01b815260040160405180910390fd5b600054600160a01b900460ff16156103ac5760405163d93c066560e01b815260040160405180910390fd5b803560048110610df457600080fd5b60006020828403121561117f57600080fd5b610db08261115e565b80356001600160a01b0381168114610df457600080fd5b600080604083850312156111b257600080fd5b6111bb83611188565b91506111c960208401611188565b90509250929050565b634e487b7160e01b600052604160045260246000fd5b604051610100810167ffffffffffffffff8111828210171561120c5761120c6111d2565b60405290565b80358015158114610df457600080fd5b600082601f83011261123357600080fd5b813567ffffffffffffffff8082111561124e5761124e6111d2565b604051601f8301601f19908116603f01168101908282118183101715611276576112766111d2565b8160405283815286602085880101111561128f57600080fd5b836020870160208301376000602085830101528094505050505092915050565b600080604083850312156112c257600080fd5b6112cb8361115e565b9150602083013567ffffffffffffffff808211156112e857600080fd5b9084019061010082870312156112fd57600080fd5b6113056111e8565b8235815260208301356020820152604083013560408201526060830135606082015261133360808401611212565b608082015261134460a08401611212565b60a082015261135560c08401611212565b60c082015260e08301358281111561136c57600080fd5b61137888828601611222565b60e0830152508093505050509250929050565b60005b838110156113a657818101518382015260200161138e565b50506000910152565b600081518084526113c781602086016020860161138b565b601f01601f19169290920160200192915050565b60006101008251845260208301516020850152604083015160408501526060830151606085015260808301511515608085015260a0830151151560a085015260c0830151151560c085015260e08301518160e086015261143d828601826113af565b95945050505050565b602081526000610db060208301846113db565b6000806040838503121561146c57600080fd5b61147583611188565b91506111c96020840161115e565b6000806040838503121561149657600080fd5b823591506111c96020840161115e565b634e487b7160e01b600052602160045260246000fd5b600481106114da57634e487b7160e01b600052602160045260246000fd5b9052565b8315158152606081016114f460208301856114bc565b826040830152949350505050565b602081526000610db060208301846113af565b60006020828403121561152757600080fd5b5035919050565b6020810161153c82846114bc565b92915050565b60006020828403121561155457600080fd5b610db082611188565b600181811c9082168061157157607f821691505b60208210810361159157634e487b7160e01b600052602260045260246000fd5b50919050565b601f8211156115e157600081815260208120601f850160051c810160208610156115be5750805b601f850160051c820191505b818110156115dd578281556001016115ca565b5050505b505050565b815167ffffffffffffffff811115611600576116006111d2565b6116148161160e845461155d565b84611597565b602080601f83116001811461164957600084156116315750858301515b600019600386901b1c1916600185901b1785556115dd565b600085815260208120601f198616915b8281101561167857888601518255948401946001909101908401611659565b50858210156116965787850151600019600388901b60f8161c191681555b5050505050600190811b01905550565b6116b081846114bc565b6040602082015260006116c660408301846113db565b949350505050565b606081016116dc82866114bc565b6114f460208301856114bc565b634e487b7160e01b600052601160045260246000fd5b808202811582820484141761153c5761153c6116e9565b60008261173357634e487b7160e01b600052601260045260246000fd5b500490565b6000835161174a81846020880161138b565b7202837b4b73a399026bab63a34b83634b2b91d1606d1b908301908152835161177a81601384016020880161138b565b6203c17160ed1b60139290910191820152601601949350505050565b600083516117a881846020880161138b565b6e436f75706f6e20426f6e75733a202b60881b90830190815283516117d481600f84016020880161138b565b6201297160ed1b600f9290910191820152601201949350505050565b6000825161180281846020870161138b565b7f5072696f726974792050726f6a656374204163636573732e2000000000000000920191825250601901919050565b6000825161184381846020870161138b565b7f4578636c7573697665204f66667365742050726f6a656374732e200000000000920191825250601b01919050565b6000825161188481846020870161138b565b7102b24a81022b0b9363c9020b1b1b2b9b997160751b920191825250601201919050565b6000600182016118ba576118ba6116e9565b5060010190565b8181038181111561153c5761153c6116e9565b60ff818116838216019081111561153c5761153c6116e9565b634e487b7160e01b600052603260045260246000fdfea2646970667358221220ab63aa07f0af06a1df98564b56cd760a76942f4e473624ea840a0ef1d2a1789a64736f6c63430008140033",
  "linkReferences": {},
  "deployedLinkReferences": {}
}