{
  "_format": "hh-sol-artifact-1",
  "contractName": "CouponExchange",
  "sourceName": "contracts/CouponExchange.sol",
  "abi": [
    {
      "inputs": [
        {
          "internalType": "address",
          "name": "_pointsToken",
          "type": "address"
        },
        {
          "internalType": "address",
          "name": "_participantRegistry",
          "type": "address"
        },
        {
          "internalType": "address",
          "name": "_tierManager",
          "type": "address"
        },
        {
          "internalType": "address",
          "name": "_rewardsVault",
          "type": "address"
        }
      ],
      "stateMutability": "nonpayable",
      "type": "constructor"
    },
    {
      "inputs": [],
      "name": "EnforcedPause",
      "type": "error"
    },
    {
      "inputs": [],
      "name": "ExpectedPause",
      "type": "error"
    },
    {
      "inputs": [
        {
          "internalType": "address",
          "name": "owner",
          "type": "address"
        }
      ],
      "name": "OwnableInvalidOwner",
      "type": "error"
    },
    {
      "inputs": [
        {
          "internalType": "address",
          "name": "account",
          "type": "address"
        }
      ],
      "name": "OwnableUnauthorizedAccount",
      "type": "error"
    },
    {
      "inputs": [],
      "name": "ReentrancyGuardReentrantCall",
      "type": "error"
    },
    {
      "anonymous": false,
      "inputs": [
        {
          "indexed": false,
          "internalType": "uint256",
          "name": "couponId",
          "type": "uint256"
        },
        {
          "indexed": false,
          "internalType": "string",
          "name": "name",
          "type": "string"
        },
        {
          "indexed": false,
          "internalType": "uint256",
          "name": "pointsCost",
          "type": "uint256"
        },
        {
          "indexed": false,
          "internalType": "uint256",
          "name": "value",
          "type": "uint256"
        }
      ],
      "name": "CouponCreated",
      "type": "event"
    },
    {
      "anonymous": false,
      "inputs": [
        {
          "indexed": true,
          "internalType": "address",
          "name": "user",
          "type": "address"
        },
        {
          "indexed": false,
          "internalType": "uint256",
          "name": "couponId",
          "type": "uint256"
        },
        {
          "indexed": false,
          "internalType": "uint256",
          "name": "pointsSpent",
          "type": "uint256"
        }
      ],
      "name": "CouponPurchased",
      "type": "event"
    },
    {
      "anonymous": false,
      "inputs": [
        {
          "indexed": true,
          "internalType": "address",
          "name": "user",
          "type": "address"
        },
        {
          "indexed": false,
          "internalType": "uint256",
          "name": "couponId",
          "type": "uint256"
        },
        {
          "indexed": false,
          "internalType": "string",
          "name": "redemptionCode",
          "type": "string"
        }
      ],
      "name": "CouponRedeemed",
      "type": "event"
    },
    {
      "anonymous": false,
      "inputs": [
        {
          "indexed": true,
          "internalType": "address",
          "name": "previousOwner",
          "type": "address"
        },
        {
          "indexed": true,
          "internalType": "address",
          "name": "newOwner",
          "type": "address"
        }
      ],
      "name": "OwnershipTransferred",
      "type": "event"
    },
    {
      "anonymous": false,
      "inputs": [
        {
          "indexed": false,
          "internalType": "address",
          "name": "account",
          "type": "address"
        }
      ],
      "name": "Paused",
      "type": "event"
    },
    {
      "anonymous": false,
      "inputs": [
        {
          "indexed": false,
          "internalType": "address",
          "name": "account",
          "type": "address"
        }
      ],
      "name": "Unpaused",
      "type": "event"
    },
    {
      "inputs": [
        {
          "internalType": "string",
          "name": "name",
          "type": "string"
        },
        {
          "internalType": "string",
          "name": "description",
          "type": "string"
        },
        {
          "internalType": "uint256",
          "name": "pointsCost",
          "type": "uint256"
        },
        {
          "internalType": "uint256",
          "name": "value",
          "type": "uint256"
        },
        {
          "internalType": "string",
          "name": "category",
          "type": "string"
        },
        {
          "internalType": "uint256",
          "name": "maxSupply",
          "type": "uint256"
        }
      ],
      "name": "createCoupon",
      "outputs": [
        {
          "internalType": "uint256",
          "name": "",
          "type": "uint256"
        }
      ],
      "stateMutability": "nonpayable",
      "type": "function"
    },
    {
      "inputs": [],
      "name": "getAvailableCoupons",
      "outputs": [
        {
          "internalType": "uint256[]",
          "name": "",
          "type": "uint256[]"
        }
      ],
      "stateMutability": "view",
      "type": "function"
    },
    {
      "inputs": [
        {
          "internalType": "uint256",
          "name": "couponId",
          "type": "uint256"
        }
      ],
      "name": "getCoupon",
      "outputs": [
        {
          "components": [
            {
              "internalType": "uint256",
              "name": "couponId",
              "type": "uint256"
            },
            {
              "internalType": "string",
              "name": "name",
              "type": "string"
            },
            {
              "internalType": "string",
              "name": "description",
              "type": "string"
            },
            {
              "internalType": "uint256",
              "name": "pointsCost",
              "type": "uint256"
            },
            {
              "internalType": "uint256",
              "name": "value",
              "type": "uint256"
            },
            {
              "internalType": "string",
              "name": "category",
              "type": "string"
            },
            {
              "internalType": "bool",
              "name": "isActive",
              "type": "bool"
            },
            {
              "internalType": "uint256",
              "name": "maxSupply",
              "type": "uint256"
            },
            {
              "internalType": "uint256",
              "name": "currentSupply",
              "type": "uint256"
            }
          ],
          "internalType": "struct ICouponExchange.Coupon",
          "name": "",
          "type": "tuple"
        }
      ],
      "stateMutability": "view",
      "type": "function"
    },
    {
      "inputs": [
        {
          "internalType": "uint256",
          "name": "couponId",
          "type": "uint256"
        },
        {
          "internalType": "address",
          "name": "user",
          "type": "address"
        }
      ],
      "name": "getCouponWithTierBonus",
      "outputs": [
        {
          "internalType": "uint256",
          "name": "",
          "type": "uint256"
        },
        {
          "internalType": "uint256",
          "name": "",
          "type": "uint256"
        }
      ],
      "stateMutability": "view",
      "type": "function"
    },
    {
      "inputs": [
        {
          "internalType": "address",
          "name": "user",
          "type": "address"
        }
      ],
      "name": "getUserCoupons",
      "outputs": [
        {
          "components": [
            {
              "internalType": "uint256",
              "name": "couponId",
              "type": "uint256"
            },
            {
              "internalType": "address",
              "name": "owner",
              "type": "address"
            },
            {
              "internalType": "uint256",
              "name": "purchaseDate",
              "type": "uint256"
            },
            {
              "internalType": "bool",
              "name": "isRedeemed",
              "type": "bool"
            },
            {
              "internalType": "uint256",
              "name": "redemptionDate",
              "type": "uint256"
            },
            {
              "internalType": "string",
              "name": "redemptionCode",
              "type": "string"
            }
          ],
          "internalType": "struct ICouponExchange.UserCoupon[]",
          "name": "",
          "type": "tuple[]"
        }
      ],
      "stateMutability": "view",
      "type": "function"
    },
    {
      "inputs": [],
      "name": "owner",
      "outputs": [
        {
          "internalType": "address",
          "name": "",
          "type": "address"
        }
      ],
      "stateMutability": "view",
      "type": "function"
    },
    {
      "inputs": [],
      "name": "participantRegistry",
      "outputs": [
        {
          "internalType": "address",
          "name": "",
          "type": "address"
        }
      ],
      "stateMutability": "view",
      "type": "function"
    },
    {
      "inputs": [],
      "name": "pause",
      "outputs": [],
      "stateMutability": "nonpayable",
      "type": "function"
    },
    {
      "inputs": [],
      "name": "paused",
      "outputs": [
        {
          "internalType": "bool",
          "name": "",
          "type": "bool"
        }
      ],
      "stateMutability": "view",
      "type": "function"
    },
    {
      "inputs": [],
      "name": "pointsToken",
      "outputs": [
        {
          "internalType": "address",
          "name": "",
          "type": "address"
        }
      ],
      "stateMutability": "view",
      "type": "function"
    },
    {
      "inputs": [
        {
          "internalType": "uint256",
          "name": "couponId",
          "type": "uint256"
        }
      ],
      "name": "purchaseCoupon",
      "outputs": [
        {
          "internalType": "uint256",
          "name": "",
          "type": "uint256"
        }
      ],
      "stateMutability": "nonpayable",
      "type": "function"
    },
    {
      "inputs": [
        {
          "internalType": "uint256",
          "name": "userCouponId",
          "type": "uint256"
        }
      ],
      "name": "redeemCoupon",
      "outputs": [
        {
          "internalType": "string",
          "name": "",
          "type": "string"
        }
      ],
      "stateMutability": "nonpayable",
      "type": "function"
    },
    {
      "inputs": [],
      "name": "renounceOwnership",
      "outputs": [],
      "stateMutability": "nonpayable",
      "type": "function"
    },
    {
      "inputs": [],
      "name": "rewardsVault",
      "outputs": [
        {
          "internalType": "address",
          "name": "",
          "type": "address"
        }
      ],
      "stateMutability": "view",
      "type": "function"
    },
    {
      "inputs": [],
      "name": "tierManager",
      "outputs": [
        {
          "internalType": "address",
          "name": "",
          "type": "address"
        }
      ],
      "stateMutability": "view",
      "type": "function"
    },
    {
      "inputs": [
        {
          "internalType": "address",
          "name": "newOwner",
          "type": "address"
        }
      ],
      "name": "transferOwnership",
      "outputs": [],
      "stateMutability": "nonpayable",
      "type": "function"
    },
    {
      "inputs": [],
      "name": "unpause",
      "outputs": [],
      "stateMutability": "nonpayable",
      "type": "function"
    },
    {
      "inputs": [
        {
          "internalType": "address",
          "name": "_pointsToken",
          "type": "address"
        },
        {
          "internalType": "address",
          "name": "_participantRegistry",
          "type": "address"
        },
        {
          "internalType": "address",
          "name": "_tierManager",
          "type": "address"
        },
        {
          "internalType": "address",
          "name": "_rewardsVault",
          "type": "address"
        }
      ],
      "name": "updateContractAddresses",
      "outputs": [],
      "stateMutability": "nonpayable",
      "type": "function"
    },
    {
      "inputs": [
        {
          "internalType": "uint256",
          "name": "couponId",
          "type": "uint256"
        },
        {
          "internalType": "bool",
          "name": "isActive",
          "type": "bool"
        }
      ],
      "name": "updateCoupon",
      "outputs": [],
      "stateMutability": "nonpayable",
      "type": "function"
    },
    {
      "inputs": [
        {
          "internalType": "uint256",
          "name": "couponId",
          "type": "uint256"
        },
        {
          "internalType": "uint256",
          "name": "newPointsCost",
          "type": "uint256"
        },
        {
          "internalType": "uint256",
          "name": "newValue",
          "type": "uint256"
        }
      ],
      "name": "updateExchangeRates",
      "outputs": [],
      "stateMutability": "nonpayable",
      "type": "function"
    },
    {
      "inputs": [
        {
          "internalType": "uint256",
          "name": "userCouponId",
          "type": "uint256"
        },
        {
          "internalType": "string",
          "name": "redemptionCode",
          "type": "string"
        }
      ],
      "name": "validateRedemption",
      "outputs": [
        {
          "internalType": "bool",
          "name": "valid",
          "type": "bool"
        },
        {
          "components": [
            {
              "internalType": "uint256",
              "name": "couponId",
              "type": "uint256"
            },
            {
              "internalType": "string",
              "name": "name",
              "type": "string"
            },
            {
              "internalType": "string",
              "name": "description",
              "type": "string"
            },
            {
              "internalType": "uint256",
              "name": "pointsCost",
              "type": "uint256"
            },
            {
              "internalType": "uint256",
              "name": "value",
              "type": "uint256"
            },
            {
              "internalType": "string",
              "name": "category",
              "type": "string"
            },
            {
              "internalType": "bool",
              "name": "isActive",
              "type": "bool"
            },
            {
              "internalType": "uint256",
              "name": "maxSupply",
              "type": "uint256"
            },
            {
              "internalType": "uint256",
              "name": "currentSupply",
              "type": "uint256"
            }
          ],
          "internalType": "struct ICouponExchange.Coupon",
          "name": "couponInfo",
          "type": "tuple"
        }
      ],
      "stateMutability": "view",
      "type": "function"
    }
  ],
  "bytecode": "0x60806040523480156200001157600080fd5b5060405162002b5938038062002b5983398101604081905262000034916200012c565b33806200005b57604051631e4fbdf760e01b81526000600482015260240160405180910390fd5b6200006681620000bf565b5060018055600880546001600160a01b039586166001600160a01b0319918216179091556009805494861694821694909417909355600a805492851692841692909217909155600b805491909316911617905562000189565b600080546001600160a01b038381166001600160a01b0319831681178455604051919092169283917f8be0079c531659141344cd1fd0a4f28419497f9722a3daafe3b4186f6b6457e09190a35050565b80516001600160a01b03811681146200012757600080fd5b919050565b600080600080608085870312156200014357600080fd5b6200014e856200010f565b93506200015e602086016200010f565b92506200016e604086016200010f565b91506200017e606086016200010f565b905092959194509250565b6129c080620001996000396000f3fe608060405234801561001057600080fd5b50600436106101375760003560e01c8063867dc007116100b85780639e9ca5911161007c5780639e9ca591146102a2578063bf4a2b12146102b5578063d994ed65146102ca578063dc8d0220146102dd578063e9ae35e214610305578063f2fde38b1461031857600080fd5b8063867dc0071461022b5780638a61809c1461023e5780638da5cb5b146102515780638df61fcb14610262578063936e31691461028257600080fd5b80636a5b41e7116100ff5780636a5b41e7146101d4578063715018a6146101e757806372106e30146101ef57806372e1011c146102105780638456cb591461022357600080fd5b806326fffb721461013c5780633f4ba83a146101625780634ffab34b1461016c5780635579ed011461018c5780635c975abb146101b7575b600080fd5b61014f61014a366004611e86565b61032b565b6040519081526020015b60405180910390f35b61016a6107e4565b005b61017f61017a366004611e86565b6107f6565b6040516101599190611eef565b600b5461019f906001600160a01b031681565b6040516001600160a01b039091168152602001610159565b600054600160a01b900460ff166040519015158152602001610159565b61016a6101e2366004611f17565b6109aa565b61016a610a2a565b6102026101fd366004612035565b610a3c565b604051610159929190612118565b60085461019f906001600160a01b031681565b61016a610dae565b600a5461019f906001600160a01b031681565b61016a61024c366004612150565b610dbe565b6000546001600160a01b031661019f565b6102756102703660046121ac565b610e16565b60405161015991906121c9565b610295610290366004611e86565b611064565b6040516101599190612273565b60095461019f906001600160a01b031681565b6102bd611289565b6040516101599190612286565b61014f6102d83660046122ca565b611401565b6102f06102eb36600461236e565b611654565b60408051928352602083019190915201610159565b61016a610313366004612393565b6119d8565b61016a6103263660046121ac565b611b08565b6000610335611b46565b61033d611b71565b60008281526004602052604090206006015460ff166103975760405162461bcd60e51b8152602060048201526011602482015270436f75706f6e206e6f742061637469766560781b60448201526064015b60405180910390fd5b60008281526004602052604090206007810154600890910154106103ef5760405162461bcd60e51b815260206004820152600f60248201526e10dbdd5c1bdb881cdbdb19081bdd5d608a1b604482015260640161038e565b6000828152600460208190526040918290206003810154600954935163c3c5a54760e01b81523393810193909352909290916001600160a01b039091169063c3c5a54790602401602060405180830381865afa158015610453573d6000803e3d6000fd5b505050506040513d601f19601f8201168201806040525081019061047791906123ca565b6104b45760405162461bcd60e51b815260206004820152600e60248201526d139bdd081c9959da5cdd195c995960921b604482015260640161038e565b600954604051637143059f60e01b81523360048201526000916001600160a01b031690637143059f90602401600060405180830381865afa1580156104fd573d6000803e3d6000fd5b505050506040513d6000823e601f3d908101601f191682016040526105259190810190612437565b905060008160400151600381111561053f5761053f6124ee565b600a54604051637d8efde560e01b81529192506000916001600160a01b0390911690637d8efde590610575908590600401612504565b602060405180830381865afa158015610592573d6000803e3d6000fd5b505050506040513d601f19601f820116820180604052508101906105b6919061252c565b9050600060648287600401546105cc919061255b565b6105d69190612578565b905060008187600401546105ea919061259a565b6008546040519192506001600160a01b0316906315f570dc90339089906106189060018d01906020016125e7565b6040516020818303038152906040526040518463ffffffff1660e01b815260040161064593929190612681565b600060405180830381600087803b15801561065f57600080fd5b505af1158015610673573d6000803e3d6000fd5b505060038054925090506000610688836126b1565b9091555050600380546040805160c0810182528c815233602080830191825242838501908152600060608501818152608086018281528751808601895283815260a08801908152898452600595869052979092208651815594516001860180546001600160a01b0319166001600160a01b03909216919091179055915160028501559051968301805460ff191697151597909717909655945160048201559151929390929082019061073a9082612719565b5050336000908152600660209081526040808320805460018181018355918552838520018690558e8452600783529083208054918201815583529082200183905560088a01805492509061078d836126b1565b9091555050604080518b81526020810189905233917ff972bbf74cac188aaec436112f6f05c6907c507b462ba3236002021161d9ab58910160405180910390a29750505050505050506107df60018055565b919050565b6107ec611b9b565b6107f4611bc8565b565b6060610800611b46565b610808611b71565b60008281526005602052604081205490036108655760405162461bcd60e51b815260206004820152601a60248201527f5573657220636f75706f6e20646f6573206e6f74206578697374000000000000604482015260640161038e565b6000828152600560205260409020600101546001600160a01b031633146108c15760405162461bcd60e51b815260206004820152601060248201526f2737ba1031b7bab837b71037bbb732b960811b604482015260640161038e565b60008281526005602052604090206003015460ff16156109235760405162461bcd60e51b815260206004820152601760248201527f436f75706f6e20616c72656164792072656465656d6564000000000000000000604482015260640161038e565b600082815260056020526040812060038101805460ff191660011790554260048201559061095084611c1d565b9050600582016109608282612719565b50815460405133917fbb357d557492c74096f70d6224a172aacbbedbb3c3b5b6b3fa03945eb4714acc91610996919085906127d9565b60405180910390a29150506107df60018055565b6109b2611b9b565b6000828152600460205260408120549003610a075760405162461bcd60e51b815260206004820152601560248201527410dbdd5c1bdb88191bd95cc81b9bdd08195e1a5cdd605a1b604482015260640161038e565b600091825260046020526040909120600601805460ff1916911515919091179055565b610a32611b9b565b6107f46000611c58565b6000610a46611e38565b6000848152600560208181526040808420815160c0810183528154815260018201546001600160a01b031693810193909352600281015491830191909152600381015460ff161515606083015260048101546080830152918201805491929160a084019190610ab4906125ad565b80601f0160208091040260200160405190810160405280929190818152602001828054610ae0906125ad565b8015610b2d5780601f10610b0257610100808354040283529160200191610b2d565b820191906000526020600020905b815481529060010190602001808311610b1057829003601f168201915b50505050508152505090508060000151600003610b4e576000925050610da7565b8060600151610b61576000925050610da7565b83805190602001208160a001518051906020012014610b84576000925050610da7565b6001925060046000826000015181526020019081526020016000206040518061012001604052908160008201548152602001600182018054610bc5906125ad565b80601f0160208091040260200160405190810160405280929190818152602001828054610bf1906125ad565b8015610c3e5780601f10610c1357610100808354040283529160200191610c3e565b820191906000526020600020905b815481529060010190602001808311610c2157829003601f168201915b50505050508152602001600282018054610c57906125ad565b80601f0160208091040260200160405190810160405280929190818152602001828054610c83906125ad565b8015610cd05780601f10610ca557610100808354040283529160200191610cd0565b820191906000526020600020905b815481529060010190602001808311610cb357829003601f168201915b505050505081526020016003820154815260200160048201548152602001600582018054610cfd906125ad565b80601f0160208091040260200160405190810160405280929190818152602001828054610d29906125ad565b8015610d765780601f10610d4b57610100808354040283529160200191610d76565b820191906000526020600020905b815481529060010190602001808311610d5957829003601f168201915b5050509183525050600682015460ff1615156020820152600782015460408201526008909101546060909101529150505b9250929050565b610db6611b9b565b6107f4611ca8565b610dc6611b9b565b600880546001600160a01b039586166001600160a01b0319918216179091556009805494861694821694909417909355600a805492851692841692909217909155600b8054919093169116179055565b6001600160a01b0381166000908152600660209081526040808320805482518185028101850190935280835260609493830182828015610e7557602002820191906000526020600020905b815481526020019060010190808311610e61575b505050505090506000815167ffffffffffffffff811115610e9857610e98611f47565b604051908082528060200260200182016040528015610f0d57816020015b610efa6040518060c001604052806000815260200160006001600160a01b031681526020016000815260200160001515815260200160008152602001606081525090565b815260200190600190039081610eb65790505b50905060005b825181101561105c5760056000848381518110610f3257610f326127f2565b6020908102919091018101518252818101929092526040908101600020815160c0810183528154815260018201546001600160a01b031693810193909352600281015491830191909152600381015460ff16151560608301526004810154608083015260058101805460a084019190610faa906125ad565b80601f0160208091040260200160405190810160405280929190818152602001828054610fd6906125ad565b80156110235780601f10610ff857610100808354040283529160200191611023565b820191906000526020600020905b81548152906001019060200180831161100657829003601f168201915b50505050508152505082828151811061103e5761103e6127f2565b60200260200101819052508080611054906126b1565b915050610f13565b509392505050565b61106c611e38565b6004600083815260200190815260200160002060405180610120016040529081600082015481526020016001820180546110a5906125ad565b80601f01602080910402602001604051908101604052809291908181526020018280546110d1906125ad565b801561111e5780601f106110f35761010080835404028352916020019161111e565b820191906000526020600020905b81548152906001019060200180831161110157829003601f168201915b50505050508152602001600282018054611137906125ad565b80601f0160208091040260200160405190810160405280929190818152602001828054611163906125ad565b80156111b05780601f10611185576101008083540402835291602001916111b0565b820191906000526020600020905b81548152906001019060200180831161119357829003601f168201915b5050505050815260200160038201548152602001600482015481526020016005820180546111dd906125ad565b80601f0160208091040260200160405190810160405280929190818152602001828054611209906125ad565b80156112565780601f1061122b57610100808354040283529160200191611256565b820191906000526020600020905b81548152906001019060200180831161123957829003601f168201915b5050509183525050600682015460ff16151560208201526007820154604082015260089091015460609091015292915050565b60025460609060008167ffffffffffffffff8111156112aa576112aa611f47565b6040519080825280602002602001820160405280156112d3578160200160208202803683370190505b509050600060015b83811161135c5760008181526004602052604090206006015460ff168015611319575060008181526004602052604090206007810154600890910154105b1561134a5780838381518110611331576113316127f2565b602090810291909101015281611346816126b1565b9250505b80611354816126b1565b9150506112db565b5060008167ffffffffffffffff81111561137857611378611f47565b6040519080825280602002602001820160405280156113a1578160200160208202803683370190505b50905060005b828110156113f8578381815181106113c1576113c16127f2565b60200260200101518282815181106113db576113db6127f2565b6020908102919091010152806113f0816126b1565b9150506113a7565b50949350505050565b600061140b611b9b565b600087511161144c5760405162461bcd60e51b815260206004820152600d60248201526c13985b59481c995c5d5a5c9959609a1b604482015260640161038e565b6000851161146c5760405162461bcd60e51b815260040161038e90612808565b600084116114bc5760405162461bcd60e51b815260206004820152601c60248201527f56616c7565206d7573742062652067726561746572207468616e203000000000604482015260640161038e565b600082116115165760405162461bcd60e51b815260206004820152602160248201527f4d617820737570706c79206d7573742062652067726561746572207468616e206044820152600360fc1b606482015260840161038e565b60028054906000611526836126b1565b9091555050600254604080516101208101825282815260208082018b81528284018b9052606083018a90526080830189905260a08301889052600160c0840181905260e0840188905260006101008501819052868152600490935293909120825181559051919290919082019061159d9082612719565b50604082015160028201906115b29082612719565b50606082015160038201556080820151600482015560a082015160058201906115db9082612719565b5060c082015160068201805460ff191691151591909117905560e08201516007820155610100909101516008909101556040517f334e0150b90dea69eb139072c5b4762835141f8cfc57868b10eaee502e830db5906116419083908b908a908a9061284a565b60405180910390a1979650505050505050565b6000806000600460008681526020019081526020016000206040518061012001604052908160008201548152602001600182018054611692906125ad565b80601f01602080910402602001604051908101604052809291908181526020018280546116be906125ad565b801561170b5780601f106116e05761010080835404028352916020019161170b565b820191906000526020600020905b8154815290600101906020018083116116ee57829003601f168201915b50505050508152602001600282018054611724906125ad565b80601f0160208091040260200160405190810160405280929190818152602001828054611750906125ad565b801561179d5780601f106117725761010080835404028352916020019161179d565b820191906000526020600020905b81548152906001019060200180831161178057829003601f168201915b5050505050815260200160038201548152602001600482015481526020016005820180546117ca906125ad565b80601f01602080910402602001604051908101604052809291908181526020018280546117f6906125ad565b80156118435780601f1061181857610100808354040283529160200191611843565b820191906000526020600020905b81548152906001019060200180831161182657829003601f168201915b5050509183525050600682015460ff16151560208201526007820154604082015260089091015460609091015260c0810151909150611889576000809250925050610da7565b600954604051637143059f60e01b81526001600160a01b0386811660048301526000921690637143059f90602401600060405180830381865afa1580156118d4573d6000803e3d6000fd5b505050506040513d6000823e601f3d908101601f191682016040526118fc9190810190612437565b9050600081604001516003811115611916576119166124ee565b600a54604051637d8efde560e01b81529192506000916001600160a01b0390911690637d8efde59061194c908590600401612504565b602060405180830381865afa158015611969573d6000803e3d6000fd5b505050506040513d601f19601f8201168201806040525081019061198d919061252c565b9050600060648286608001516119a3919061255b565b6119ad9190612578565b905060008186608001516119c1919061259a565b606090960151975094955050505050509250929050565b6119e0611b9b565b6000838152600460205260408120549003611a355760405162461bcd60e51b815260206004820152601560248201527410dbdd5c1bdb88191bd95cc81b9bdd08195e1a5cdd605a1b604482015260640161038e565b60008211611a555760405162461bcd60e51b815260040161038e90612808565b60008111611aa55760405162461bcd60e51b815260206004820152601c60248201527f56616c7565206d7573742062652067726561746572207468616e203000000000604482015260640161038e565b6000838152600460208190526040918290206003810185905590810183905590517f334e0150b90dea69eb139072c5b4762835141f8cfc57868b10eaee502e830db591611afb9186916001019086908690612876565b60405180910390a1505050565b611b10611b9b565b6001600160a01b038116611b3a57604051631e4fbdf760e01b81526000600482015260240161038e565b611b4381611c58565b50565b600054600160a01b900460ff16156107f45760405163d93c066560e01b815260040160405180910390fd5b600260015403611b9457604051633ee5aeb560e01b815260040160405180910390fd5b6002600155565b6000546001600160a01b031633146107f45760405163118cdaa760e01b815233600482015260240161038e565b611bd0611ceb565b6000805460ff60a01b191690557f5db9ee0a495bf2e6ff9c91a7834c1ba4fdd244a5e8aa4e537bd38aeae4b073aa335b6040516001600160a01b03909116815260200160405180910390a1565b6060611c2882611d15565b611c3142611d15565b604051602001611c42929190612913565b6040516020818303038152906040529050919050565b600080546001600160a01b038381166001600160a01b0319831681178455604051919092169283917f8be0079c531659141344cd1fd0a4f28419497f9722a3daafe3b4186f6b6457e09190a35050565b611cb0611b46565b6000805460ff60a01b1916600160a01b1790557f62e78cea01bee320cd4e420270b5ea74000d11b0c9f74754ebdbfc544b05a258611c003390565b600054600160a01b900460ff166107f457604051638dfc202b60e01b815260040160405180910390fd5b606081600003611d3c5750506040805180820190915260018152600360fc1b602082015290565b8160005b8115611d665780611d50816126b1565b9150611d5f9050600a83612578565b9150611d40565b60008167ffffffffffffffff811115611d8157611d81611f47565b6040519080825280601f01601f191660200182016040528015611dab576020820181803683370190505b509050815b85156113f857611dc160018261295e565b90506000611dd0600a88612578565b611ddb90600a61255b565b611de5908861295e565b611df0906030612971565b905060008160f81b905080848481518110611e0d57611e0d6127f2565b60200101906001600160f81b031916908160001a905350611e2f600a89612578565b97505050611db0565b60405180610120016040528060008152602001606081526020016060815260200160008152602001600081526020016060815260200160001515815260200160008152602001600081525090565b600060208284031215611e9857600080fd5b5035919050565b60005b83811015611eba578181015183820152602001611ea2565b50506000910152565b60008151808452611edb816020860160208601611e9f565b601f01601f19169290920160200192915050565b602081526000611f026020830184611ec3565b9392505050565b8015158114611b4357600080fd5b60008060408385031215611f2a57600080fd5b823591506020830135611f3c81611f09565b809150509250929050565b634e487b7160e01b600052604160045260246000fd5b60405160e0810167ffffffffffffffff81118282101715611f8057611f80611f47565b60405290565b604051601f8201601f1916810167ffffffffffffffff81118282101715611faf57611faf611f47565b604052919050565b600067ffffffffffffffff821115611fd157611fd1611f47565b50601f01601f191660200190565b600082601f830112611ff057600080fd5b8135612003611ffe82611fb7565b611f86565b81815284602083860101111561201857600080fd5b816020850160208301376000918101602001919091529392505050565b6000806040838503121561204857600080fd5b82359150602083013567ffffffffffffffff81111561206657600080fd5b61207285828601611fdf565b9150509250929050565b600061012082518452602083015181602086015261209c82860182611ec3565b915050604083015184820360408601526120b68282611ec3565b915050606083015160608501526080830151608085015260a083015184820360a08601526120e48282611ec3565b91505060c08301516120fa60c086018215159052565b5060e083810151908501526101009283015192909301919091525090565b8215158152604060208201526000612133604083018461207c565b949350505050565b6001600160a01b0381168114611b4357600080fd5b6000806000806080858703121561216657600080fd5b84356121718161213b565b935060208501356121818161213b565b925060408501356121918161213b565b915060608501356121a18161213b565b939692955090935050565b6000602082840312156121be57600080fd5b8135611f028161213b565b60006020808301818452808551808352604092508286019150828160051b87010184880160005b8381101561226557888303603f19018552815180518452878101516001600160a01b03168885015286810151878501526060808201511515908501526080808201519085015260a09081015160c09185018290529061225181860183611ec3565b9689019694505050908601906001016121f0565b509098975050505050505050565b602081526000611f02602083018461207c565b6020808252825182820181905260009190848201906040850190845b818110156122be578351835292840192918401916001016122a2565b50909695505050505050565b60008060008060008060c087890312156122e357600080fd5b863567ffffffffffffffff808211156122fb57600080fd5b6123078a838b01611fdf565b9750602089013591508082111561231d57600080fd5b6123298a838b01611fdf565b96506040890135955060608901359450608089013591508082111561234d57600080fd5b5061235a89828a01611fdf565b92505060a087013590509295509295509295565b6000806040838503121561238157600080fd5b823591506020830135611f3c8161213b565b6000806000606084860312156123a857600080fd5b505081359360208301359350604090920135919050565b80516107df81611f09565b6000602082840312156123dc57600080fd5b8151611f0281611f09565b80516107df8161213b565b600082601f83011261240357600080fd5b8151612411611ffe82611fb7565b81815284602083860101111561242657600080fd5b612133826020830160208701611e9f565b60006020828403121561244957600080fd5b815167ffffffffffffffff8082111561246157600080fd5b9083019060e0828603121561247557600080fd5b61247d611f5d565b612486836123e7565b8152602083015160208201526040830151604082015260608301516060820152608083015160808201526124bc60a084016123bf565b60a082015260c0830151828111156124d357600080fd5b6124df878286016123f2565b60c08301525095945050505050565b634e487b7160e01b600052602160045260246000fd5b602081016004831061252657634e487b7160e01b600052602160045260246000fd5b91905290565b60006020828403121561253e57600080fd5b5051919050565b634e487b7160e01b600052601160045260246000fd5b808202811582820484141761257257612572612545565b92915050565b60008261259557634e487b7160e01b600052601260045260246000fd5b500490565b8082018082111561257257612572612545565b600181811c908216806125c157607f821691505b6020821081036125e157634e487b7160e01b600052602260045260246000fd5b50919050565b710283ab931b430b9b2b21031b7bab837b71d160751b81526000601260008454612610816125ad565b60018281168015612628576001811461264157612674565b60ff198416888701528215158302880186019450612674565b8860005260208060002060005b858110156126695781548b82018a015290840190820161264e565b505050858389010194505b5092979650505050505050565b60018060a01b03841681528260208201526060604082015260006126a86060830184611ec3565b95945050505050565b6000600182016126c3576126c3612545565b5060010190565b601f82111561271457600081815260208120601f850160051c810160208610156126f15750805b601f850160051c820191505b81811015612710578281556001016126fd565b5050505b505050565b815167ffffffffffffffff81111561273357612733611f47565b6127478161274184546125ad565b846126ca565b602080601f83116001811461277c57600084156127645750858301515b600019600386901b1c1916600185901b178555612710565b600085815260208120601f198616915b828110156127ab5788860151825594840194600190910190840161278c565b50858210156127c95787850151600019600388901b60f8161c191681555b5050505050600190811b01905550565b8281526040602082015260006121336040830184611ec3565b634e487b7160e01b600052603260045260246000fd5b60208082526022908201527f506f696e747320636f7374206d7573742062652067726561746572207468616e604082015261020360f41b606082015260800190565b8481526080602082015260006128636080830186611ec3565b6040830194909452506060015292915050565b8481526000602060808184015260008654612890816125ad565b80608087015260a06001808416600081146128b257600181146128cc576128fa565b60ff1985168984015283151560051b8901830195506128fa565b8b6000528660002060005b858110156128f25781548b82018601529083019088016128d7565b8a0184019650505b5050505050604084019590955250506060015292915050565b6247432d60e81b815260008351612931816003850160208801611e9f565b602d60f81b6003918401918201528351612952816004840160208801611e9f565b01600401949350505050565b8181038181111561257257612572612545565b60ff81811683821601908111156125725761257261254556fea2646970667358221220581f92fb0dd78c6c2e6f9a14e076f1a5c0130a9e7fc85f10ef0f9900caddb50964736f6c63430008140033",
  "linkReferences": {},
  "deployedLinkReferences": {}
}