{
  "_format": "hh-sol-artifact-1",
  "contractName": "BadgeNFT",
  "sourceName": "contracts/BadgeNFT.sol",
  "abi": [
    {
      "inputs": [
        {
          "internalType": "address",
          "name": "_participantRegistry",
          "type": "address"
        },
        {
          "internalType": "address",
          "name": "_tierManager",
          "type": "address"
        }
      ],
      "stateMutability": "nonpayable",
      "type": "constructor"
    },
    {
      "inputs": [
        {
          "internalType": "address",
          "name": "sender",
          "type": "address"
        },
        {
          "internalType": "uint256",
          "name": "tokenId",
          "type": "uint256"
        },
        {
          "internalType": "address",
          "name": "owner",
          "type": "address"
        }
      ],
      "name": "ERC721IncorrectOwner",
      "type": "error"
    },
    {
      "inputs": [
        {
          "internalType": "address",
          "name": "operator",
          "type": "address"
        },
        {
          "internalType": "uint256",
          "name": "tokenId",
          "type": "uint256"
        }
      ],
      "name": "ERC721InsufficientApproval",
      "type": "error"
    },
    {
      "inputs": [
        {
          "internalType": "address",
          "name": "approver",
          "type": "address"
        }
      ],
      "name": "ERC721InvalidApprover",
      "type": "error"
    },
    {
      "inputs": [
        {
          "internalType": "address",
          "name": "operator",
          "type": "address"
        }
      ],
      "name": "ERC721InvalidOperator",
      "type": "error"
    },
    {
      "inputs": [
        {
          "internalType": "address",
          "name": "owner",
          "type": "address"
        }
      ],
      "name": "ERC721InvalidOwner",
      "type": "error"
    },
    {
      "inputs": [
        {
          "internalType": "address",
          "name": "receiver",
          "type": "address"
        }
      ],
      "name": "ERC721InvalidReceiver",
      "type": "error"
    },
    {
      "inputs": [
        {
          "internalType": "address",
          "name": "sender",
          "type": "address"
        }
      ],
      "name": "ERC721InvalidSender",
      "type": "error"
    },
    {
      "inputs": [
        {
          "internalType": "uint256",
          "name": "tokenId",
          "type": "uint256"
        }
      ],
      "name": "ERC721NonexistentToken",
      "type": "error"
    },
    {
      "inputs": [],
      "name": "EnforcedPause",
      "type": "error"
    },
    {
      "inputs": [],
      "name": "ExpectedPause",
      "type": "error"
    },
    {
      "inputs": [
        {
          "internalType": "address",
          "name": "owner",
          "type": "address"
        }
      ],
      "name": "OwnableInvalidOwner",
      "type": "error"
    },
    {
      "inputs": [
        {
          "internalType": "address",
          "name": "account",
          "type": "address"
        }
      ],
      "name": "OwnableUnauthorizedAccount",
      "type": "error"
    },
    {
      "anonymous": false,
      "inputs": [
        {
          "indexed": true,
          "internalType": "address",
          "name": "owner",
          "type": "address"
        },
        {
          "indexed": true,
          "internalType": "address",
          "name": "approved",
          "type": "address"
        },
        {
          "indexed": true,
          "internalType": "uint256",
          "name": "tokenId",
          "type": "uint256"
        }
      ],
      "name": "Approval",
      "type": "event"
    },
    {
      "anonymous": false,
      "inputs": [
        {
          "indexed": true,
          "internalType": "address",
          "name": "owner",
          "type": "address"
        },
        {
          "indexed": true,
          "internalType": "address",
          "name": "operator",
          "type": "address"
        },
        {
          "indexed": false,
          "internalType": "bool",
          "name": "approved",
          "type": "bool"
        }
      ],
      "name": "ApprovalForAll",
      "type": "event"
    },
    {
      "anonymous": false,
      "inputs": [
        {
          "indexed": true,
          "internalType": "address",
          "name": "to",
          "type": "address"
        },
        {
          "indexed": false,
          "internalType": "uint256",
          "name": "tokenId",
          "type": "uint256"
        },
        {
          "indexed": false,
          "internalType": "string",
          "name": "badgeType",
          "type": "string"
        }
      ],
      "name": "BadgeMinted",
      "type": "event"
    },
    {
      "anonymous": false,
      "inputs": [
        {
          "indexed": false,
          "internalType": "uint256",
          "name": "tokenId",
          "type": "uint256"
        },
        {
          "indexed": false,
          "internalType": "string",
          "name": "badgeType",
          "type": "string"
        }
      ],
      "name": "BadgeUpdated",
      "type": "event"
    },
    {
      "anonymous": false,
      "inputs": [
        {
          "indexed": false,
          "internalType": "uint256",
          "name": "_fromTokenId",
          "type": "uint256"
        },
        {
          "indexed": false,
          "internalType": "uint256",
          "name": "_toTokenId",
          "type": "uint256"
        }
      ],
      "name": "BatchMetadataUpdate",
      "type": "event"
    },
    {
      "anonymous": false,
      "inputs": [
        {
          "indexed": false,
          "internalType": "uint256",
          "name": "_tokenId",
          "type": "uint256"
        }
      ],
      "name": "MetadataUpdate",
      "type": "event"
    },
    {
      "anonymous": false,
      "inputs": [
        {
          "indexed": true,
          "internalType": "address",
          "name": "previousOwner",
          "type": "address"
        },
        {
          "indexed": true,
          "internalType": "address",
          "name": "newOwner",
          "type": "address"
        }
      ],
      "name": "OwnershipTransferred",
      "type": "event"
    },
    {
      "anonymous": false,
      "inputs": [
        {
          "indexed": false,
          "internalType": "address",
          "name": "account",
          "type": "address"
        }
      ],
      "name": "Paused",
      "type": "event"
    },
    {
      "anonymous": false,
      "inputs": [
        {
          "indexed": true,
          "internalType": "address",
          "name": "from",
          "type": "address"
        },
        {
          "indexed": true,
          "internalType": "address",
          "name": "to",
          "type": "address"
        },
        {
          "indexed": true,
          "internalType": "uint256",
          "name": "tokenId",
          "type": "uint256"
        }
      ],
      "name": "Transfer",
      "type": "event"
    },
    {
      "anonymous": false,
      "inputs": [
        {
          "indexed": false,
          "internalType": "address",
          "name": "account",
          "type": "address"
        }
      ],
      "name": "Unpaused",
      "type": "event"
    },
    {
      "inputs": [
        {
          "internalType": "address",
          "name": "to",
          "type": "address"
        },
        {
          "internalType": "uint256",
          "name": "tokenId",
          "type": "uint256"
        }
      ],
      "name": "approve",
      "outputs": [],
      "stateMutability": "nonpayable",
      "type": "function"
    },
    {
      "inputs": [
        {
          "internalType": "address",
          "name": "owner",
          "type": "address"
        }
      ],
      "name": "balanceOf",
      "outputs": [
        {
          "internalType": "uint256",
          "name": "",
          "type": "uint256"
        }
      ],
      "stateMutability": "view",
      "type": "function"
    },
    {
      "inputs": [
        {
          "internalType": "uint256",
          "name": "tokenId",
          "type": "uint256"
        }
      ],
      "name": "burnBadge",
      "outputs": [],
      "stateMutability": "nonpayable",
      "type": "function"
    },
    {
      "inputs": [
        {
          "internalType": "uint256",
          "name": "tokenId",
          "type": "uint256"
        }
      ],
      "name": "getApproved",
      "outputs": [
        {
          "internalType": "address",
          "name": "",
          "type": "address"
        }
      ],
      "stateMutability": "view",
      "type": "function"
    },
    {
      "inputs": [
        {
          "internalType": "uint256",
          "name": "tokenId",
          "type": "uint256"
        }
      ],
      "name": "getBadge",
      "outputs": [
        {
          "components": [
            {
              "internalType": "uint256",
              "name": "tokenId",
              "type": "uint256"
            },
            {
              "internalType": "address",
              "name": "owner",
              "type": "address"
            },
            {
              "internalType": "string",
              "name": "badgeType",
              "type": "string"
            },
            {
              "internalType": "string",
              "name": "name",
              "type": "string"
            },
            {
              "internalType": "string",
              "name": "description",
              "type": "string"
            },
            {
              "internalType": "string",
              "name": "imageURI",
              "type": "string"
            },
            {
              "internalType": "uint256",
              "name": "earnedDate",
              "type": "uint256"
            },
            {
              "internalType": "bool",
              "name": "isActive",
              "type": "bool"
            }
          ],
          "internalType": "struct IBadgeNFT.Badge",
          "name": "",
          "type": "tuple"
        }
      ],
      "stateMutability": "view",
      "type": "function"
    },
    {
      "inputs": [
        {
          "internalType": "uint256",
          "name": "tokenId",
          "type": "uint256"
        }
      ],
      "name": "getBadgeMetadata",
      "outputs": [
        {
          "components": [
            {
              "internalType": "uint256",
              "name": "tokenId",
              "type": "uint256"
            },
            {
              "internalType": "address",
              "name": "owner",
              "type": "address"
            },
            {
              "internalType": "string",
              "name": "badgeType",
              "type": "string"
            },
            {
              "internalType": "string",
              "name": "name",
              "type": "string"
            },
            {
              "internalType": "string",
              "name": "description",
              "type": "string"
            },
            {
              "internalType": "string",
              "name": "imageURI",
              "type": "string"
            },
            {
              "internalType": "uint256",
              "name": "earnedDate",
              "type": "uint256"
            },
            {
              "internalType": "bool",
              "name": "isActive",
              "type": "bool"
            }
          ],
          "internalType": "struct IBadgeNFT.Badge",
          "name": "",
          "type": "tuple"
        }
      ],
      "stateMutability": "view",
      "type": "function"
    },
    {
      "inputs": [
        {
          "internalType": "address",
          "name": "user",
          "type": "address"
        }
      ],
      "name": "getUserBadges",
      "outputs": [
        {
          "internalType": "uint256[]",
          "name": "",
          "type": "uint256[]"
        }
      ],
      "stateMutability": "view",
      "type": "function"
    },
    {
      "inputs": [
        {
          "internalType": "address",
          "name": "owner",
          "type": "address"
        },
        {
          "internalType": "address",
          "name": "operator",
          "type": "address"
        }
      ],
      "name": "isApprovedForAll",
      "outputs": [
        {
          "internalType": "bool",
          "name": "",
          "type": "bool"
        }
      ],
      "stateMutability": "view",
      "type": "function"
    },
    {
      "inputs": [
        {
          "internalType": "address",
          "name": "to",
          "type": "address"
        },
        {
          "internalType": "string",
          "name": "badgeType",
          "type": "string"
        },
        {
          "internalType": "string",
          "name": "name",
          "type": "string"
        },
        {
          "internalType": "string",
          "name": "description",
          "type": "string"
        },
        {
          "internalType": "string",
          "name": "imageURI",
          "type": "string"
        }
      ],
      "name": "mintBadge",
      "outputs": [
        {
          "internalType": "uint256",
          "name": "",
          "type": "uint256"
        }
      ],
      "stateMutability": "nonpayable",
      "type": "function"
    },
    {
      "inputs": [],
      "name": "name",
      "outputs": [
        {
          "internalType": "string",
          "name": "",
          "type": "string"
        }
      ],
      "stateMutability": "view",
      "type": "function"
    },
    {
      "inputs": [],
      "name": "owner",
      "outputs": [
        {
          "internalType": "address",
          "name": "",
          "type": "address"
        }
      ],
      "stateMutability": "view",
      "type": "function"
    },
    {
      "inputs": [
        {
          "internalType": "uint256",
          "name": "tokenId",
          "type": "uint256"
        }
      ],
      "name": "ownerOf",
      "outputs": [
        {
          "internalType": "address",
          "name": "",
          "type": "address"
        }
      ],
      "stateMutability": "view",
      "type": "function"
    },
    {
      "inputs": [],
      "name": "participantRegistry",
      "outputs": [
        {
          "internalType": "address",
          "name": "",
          "type": "address"
        }
      ],
      "stateMutability": "view",
      "type": "function"
    },
    {
      "inputs": [],
      "name": "pause",
      "outputs": [],
      "stateMutability": "nonpayable",
      "type": "function"
    },
    {
      "inputs": [],
      "name": "paused",
      "outputs": [
        {
          "internalType": "bool",
          "name": "",
          "type": "bool"
        }
      ],
      "stateMutability": "view",
      "type": "function"
    },
    {
      "inputs": [],
      "name": "renounceOwnership",
      "outputs": [],
      "stateMutability": "nonpayable",
      "type": "function"
    },
    {
      "inputs": [
        {
          "internalType": "address",
          "name": "from",
          "type": "address"
        },
        {
          "internalType": "address",
          "name": "to",
          "type": "address"
        },
        {
          "internalType": "uint256",
          "name": "tokenId",
          "type": "uint256"
        }
      ],
      "name": "safeTransferFrom",
      "outputs": [],
      "stateMutability": "nonpayable",
      "type": "function"
    },
    {
      "inputs": [
        {
          "internalType": "address",
          "name": "from",
          "type": "address"
        },
        {
          "internalType": "address",
          "name": "to",
          "type": "address"
        },
        {
          "internalType": "uint256",
          "name": "tokenId",
          "type": "uint256"
        },
        {
          "internalType": "bytes",
          "name": "data",
          "type": "bytes"
        }
      ],
      "name": "safeTransferFrom",
      "outputs": [],
      "stateMutability": "nonpayable",
      "type": "function"
    },
    {
      "inputs": [
        {
          "internalType": "address",
          "name": "operator",
          "type": "address"
        },
        {
          "internalType": "bool",
          "name": "approved",
          "type": "bool"
        }
      ],
      "name": "setApprovalForAll",
      "outputs": [],
      "stateMutability": "nonpayable",
      "type": "function"
    },
    {
      "inputs": [
        {
          "internalType": "bytes4",
          "name": "interfaceId",
          "type": "bytes4"
        }
      ],
      "name": "supportsInterface",
      "outputs": [
        {
          "internalType": "bool",
          "name": "",
          "type": "bool"
        }
      ],
      "stateMutability": "view",
      "type": "function"
    },
    {
      "inputs": [],
      "name": "symbol",
      "outputs": [
        {
          "internalType": "string",
          "name": "",
          "type": "string"
        }
      ],
      "stateMutability": "view",
      "type": "function"
    },
    {
      "inputs": [],
      "name": "tierManager",
      "outputs": [
        {
          "internalType": "address",
          "name": "",
          "type": "address"
        }
      ],
      "stateMutability": "view",
      "type": "function"
    },
    {
      "inputs": [
        {
          "internalType": "uint256",
          "name": "tokenId",
          "type": "uint256"
        }
      ],
      "name": "tokenURI",
      "outputs": [
        {
          "internalType": "string",
          "name": "",
          "type": "string"
        }
      ],
      "stateMutability": "view",
      "type": "function"
    },
    {
      "inputs": [
        {
          "internalType": "address",
          "name": "from",
          "type": "address"
        },
        {
          "internalType": "address",
          "name": "to",
          "type": "address"
        },
        {
          "internalType": "uint256",
          "name": "tokenId",
          "type": "uint256"
        }
      ],
      "name": "transferFrom",
      "outputs": [],
      "stateMutability": "nonpayable",
      "type": "function"
    },
    {
      "inputs": [
        {
          "internalType": "address",
          "name": "newOwner",
          "type": "address"
        }
      ],
      "name": "transferOwnership",
      "outputs": [],
      "stateMutability": "nonpayable",
      "type": "function"
    },
    {
      "inputs": [],
      "name": "unpause",
      "outputs": [],
      "stateMutability": "nonpayable",
      "type": "function"
    },
    {
      "inputs": [
        {
          "internalType": "uint256",
          "name": "tokenId",
          "type": "uint256"
        },
        {
          "internalType": "string",
          "name": "badgeType",
          "type": "string"
        }
      ],
      "name": "updateBadge",
      "outputs": [],
      "stateMutability": "nonpayable",
      "type": "function"
    },
    {
      "inputs": [
        {
          "internalType": "address",
          "name": "_participantRegistry",
          "type": "address"
        },
        {
          "internalType": "address",
          "name": "_tierManager",
          "type": "address"
        }
      ],
      "name": "updateContractAddresses",
      "outputs": [],
      "stateMutability": "nonpayable",
      "type": "function"
    }
  ],
  "bytecode": "0x60806040523480156200001157600080fd5b5060405162002aa138038062002aa183398101604081905262000034916200017a565b3360405180604001604052806011815260200170477265656e436861696e2042616467657360781b8152506040518060400160405280600381526020016223a1a160e91b81525081600090816200008c919062000257565b5060016200009b828262000257565b5050506001600160a01b038116620000cd57604051631e4fbdf760e01b81526000600482015260240160405180910390fd5b620000d8816200010b565b50600b80546001600160a01b039384166001600160a01b031991821617909155600c805492909316911617905562000323565b600780546001600160a01b038381166001600160a01b0319831681179093556040519116919082907f8be0079c531659141344cd1fd0a4f28419497f9722a3daafe3b4186f6b6457e090600090a35050565b80516001600160a01b03811681146200017557600080fd5b919050565b600080604083850312156200018e57600080fd5b62000199836200015d565b9150620001a9602084016200015d565b90509250929050565b634e487b7160e01b600052604160045260246000fd5b600181811c90821680620001dd57607f821691505b602082108103620001fe57634e487b7160e01b600052602260045260246000fd5b50919050565b601f8211156200025257600081815260208120601f850160051c810160208610156200022d5750805b601f850160051c820191505b818110156200024e5782815560010162000239565b5050505b505050565b81516001600160401b03811115620002735762000273620001b2565b6200028b81620002848454620001c8565b8462000204565b602080601f831160018114620002c35760008415620002aa5750858301515b600019600386901b1c1916600185901b1785556200024e565b600085815260208120601f198616915b82811015620002f457888601518255948401946001909101908401620002d3565b5085821015620003135787850151600019600388901b60f8161c191681555b5050505050600190811b01905550565b61276e80620003336000396000f3fe608060405234801561001057600080fd5b50600436106101c45760003560e01c80638456cb59116100f9578063b88d4fde11610097578063d19b610611610071578063d19b610614610323578063e8046ec3146103bb578063e985e9c5146103ce578063f2fde38b146103e157600080fd5b8063b88d4fde14610382578063c65b19cf14610395578063c87b56dd146103a857600080fd5b80638da5cb5b116100d35780638da5cb5b1461034357806395d89b41146103545780639e9ca5911461035c578063a22cb4651461036f57600080fd5b80638456cb5914610308578063867dc007146103105780638d8386221461032357600080fd5b80633f4ba83a116101665780635c975abb116101405780635c975abb146102ba5780636352211e146102cc57806370a08231146102df578063715018a61461030057600080fd5b80633f4ba83a1461028c57806342842e0e1461029457806355de28ae146102a757600080fd5b8063095ea7b3116101a2578063095ea7b3146102315780631ff6dc5b1461024657806323b872dd1461025957806337c245fe1461026c57600080fd5b806301ffc9a7146101c957806306fdde03146101f1578063081812fc14610206575b600080fd5b6101dc6101d7366004611e3c565b6103f4565b60405190151581526020015b60405180910390f35b6101f9610405565b6040516101e89190611ea9565b610219610214366004611ebc565b610497565b6040516001600160a01b0390911681526020016101e8565b61024461023f366004611ef1565b6104c0565b005b610244610254366004611f1b565b6104cf565b610244610267366004611f4e565b610505565b61027f61027a366004611f8a565b610595565b6040516101e89190611fa5565b610244610601565b6102446102a2366004611f4e565b610613565b6102446102b5366004611ebc565b610633565b600754600160a01b900460ff166101dc565b6102196102da366004611ebc565b610815565b6102f26102ed366004611f8a565b610820565b6040519081526020016101e8565b610244610868565b61024461087a565b600c54610219906001600160a01b031681565b610336610331366004611ebc565b61088a565b6040516101e89190611fdd565b6007546001600160a01b0316610219565b6101f9610bb1565b600b54610219906001600160a01b031681565b61024461037d3660046120a3565b610bc0565b61024461039036600461216b565b610bcb565b6102446103a3366004612207565b610be3565b6101f96103b6366004611ebc565b610cc1565b6102f26103c936600461224e565b610ccc565b6101dc6103dc366004611f1b565b610f80565b6102446103ef366004611f8a565b610fae565b60006103ff82610fec565b92915050565b6060600080546104149061230c565b80601f01602080910402602001604051908101604052809291908181526020018280546104409061230c565b801561048d5780601f106104625761010080835404028352916020019161048d565b820191906000526020600020905b81548152906001019060200180831161047057829003601f168201915b5050505050905090565b60006104a282611011565b506000828152600460205260409020546001600160a01b03166103ff565b6104cb82823361104a565b5050565b6104d7611057565b600b80546001600160a01b039384166001600160a01b031991821617909155600c8054929093169116179055565b6001600160a01b03821661053457604051633250574960e11b8152600060048201526024015b60405180910390fd5b6000610541838333611084565b9050836001600160a01b0316816001600160a01b03161461058f576040516364283d7b60e01b81526001600160a01b038086166004830152602482018490528216604482015260640161052b565b50505050565b6001600160a01b0381166000908152600a60209081526040918290208054835181840281018401909452808452606093928301828280156105f557602002820191906000526020600020905b8154815260200190600101908083116105e1575b50505050509050919050565b610609611057565b61061161117d565b565b61062e83838360405180602001604052806000815250610bcb565b505050565b6007546001600160a01b03163314806106565750600b546001600160a01b031633145b8061066b5750600c546001600160a01b031633145b6106875760405162461bcd60e51b815260040161052b90612346565b600061069282610815565b6001600160a01b0316036106b85760405162461bcd60e51b815260040161052b9061236e565b6000818152600960209081526040808320600101546001600160a01b0316808452600a909252822090915b815481101561079757838282815481106106ff576106ff61239c565b906000526020600020015403610785578154829061071f906001906123c8565b8154811061072f5761072f61239c565b906000526020600020015482828154811061074c5761074c61239c565b90600052602060002001819055508180548061076a5761076a6123db565b60019003818190600052602060002001600090559055610797565b8061078f816123f1565b9150506106e3565b5060008381526009602052604081208181556001810180546001600160a01b0319169055906107c96002830182611dd8565b6107d7600383016000611dd8565b6107e5600483016000611dd8565b6107f3600583016000611dd8565b506000600682018190556007909101805460ff1916905561058f908481611084565b60006103ff82611011565b60006001600160a01b03821661084c576040516322718ad960e21b81526000600482015260240161052b565b506001600160a01b031660009081526003602052604090205490565b610870611057565b61061160006111d2565b610882611057565b610611611224565b6108dd6040518061010001604052806000815260200160006001600160a01b0316815260200160608152602001606081526020016060815260200160608152602001600081526020016000151581525090565b60006108e883610815565b6001600160a01b03160361090e5760405162461bcd60e51b815260040161052b9061236e565b6000828152600960209081526040918290208251610100810184528154815260018201546001600160a01b03169281019290925260028101805492939192918401916109599061230c565b80601f01602080910402602001604051908101604052809291908181526020018280546109859061230c565b80156109d25780601f106109a7576101008083540402835291602001916109d2565b820191906000526020600020905b8154815290600101906020018083116109b557829003601f168201915b505050505081526020016003820180546109eb9061230c565b80601f0160208091040260200160405190810160405280929190818152602001828054610a179061230c565b8015610a645780601f10610a3957610100808354040283529160200191610a64565b820191906000526020600020905b815481529060010190602001808311610a4757829003601f168201915b50505050508152602001600482018054610a7d9061230c565b80601f0160208091040260200160405190810160405280929190818152602001828054610aa99061230c565b8015610af65780601f10610acb57610100808354040283529160200191610af6565b820191906000526020600020905b815481529060010190602001808311610ad957829003601f168201915b50505050508152602001600582018054610b0f9061230c565b80601f0160208091040260200160405190810160405280929190818152602001828054610b3b9061230c565b8015610b885780601f10610b5d57610100808354040283529160200191610b88565b820191906000526020600020905b815481529060010190602001808311610b6b57829003601f168201915b50505091835250506006820154602082015260079091015460ff16151560409091015292915050565b6060600180546104149061230c565b6104cb338383611267565b610bd6848484610505565b61058f3385858585611306565b6007546001600160a01b0316331480610c065750600b546001600160a01b031633145b80610c1b5750600c546001600160a01b031633145b610c375760405162461bcd60e51b815260040161052b90612346565b6000610c4283610815565b6001600160a01b031603610c685760405162461bcd60e51b815260040161052b9061236e565b6000828152600960205260409020600201610c838282612450565b507ff8104afbd111614568b2e305524302c432b586aafbb619b17be992e08e17fb2e8282604051610cb5929190612510565b60405180910390a15050565b60606103ff82611431565b6000610ce06007546001600160a01b031690565b6001600160a01b0316336001600160a01b03161480610d095750600b546001600160a01b031633145b80610d1e5750600c546001600160a01b031633145b610d3a5760405162461bcd60e51b815260040161052b90612346565b610d42611542565b6001600160a01b038616610d985760405162461bcd60e51b815260206004820152601b60248201527f43616e6e6f74206d696e7420746f207a65726f20616464726573730000000000604482015260640161052b565b60088054906000610da8836123f1565b909155505060085460408051610100810182528281526001600160a01b0389811660208084019182528385018b8152606085018b9052608085018a905260a085018990524260c0860152600160e08601819052600088815260099093529590912084518155915194820180546001600160a01b03191695909316949094179091559151909182916002820190610e3e9082612450565b5060608201516003820190610e539082612450565b5060808201516004820190610e689082612450565b5060a08201516005820190610e7d9082612450565b5060c0820151600682015560e0909101516007909101805460ff19169115159190911790556001600160a01b0388166000908152600a6020908152604082208054600181018255908352912001829055610ed7888361156d565b6000610f05878787604051602001610ef193929190612529565b604051602081830303815290604052611587565b604051602001610f1591906125c7565b6040516020818303038152906040529050610f3083826118eb565b886001600160a01b03167f6854c057dc92416510857b3daad5434a4202a4d192cf0f85d496d91974efaea3848a604051610f6b929190612510565b60405180910390a25090979650505050505050565b6001600160a01b03918216600090815260056020908152604080832093909416825291909152205460ff1690565b610fb6611057565b6001600160a01b038116610fe057604051631e4fbdf760e01b81526000600482015260240161052b565b610fe9816111d2565b50565b60006001600160e01b03198216632483248360e11b14806103ff57506103ff82611934565b6000818152600260205260408120546001600160a01b0316806103ff57604051637e27328960e01b81526004810184905260240161052b565b61062e8383836001611984565b6007546001600160a01b031633146106115760405163118cdaa760e01b815233600482015260240161052b565b6000828152600260205260408120546001600160a01b03908116908316156110b1576110b1818486611a8a565b6001600160a01b038116156110ef576110ce600085600080611984565b6001600160a01b038116600090815260036020526040902080546000190190555b6001600160a01b0385161561111e576001600160a01b0385166000908152600360205260409020805460010190555b60008481526002602052604080822080546001600160a01b0319166001600160a01b0389811691821790925591518793918516917fddf252ad1be2c89b69c2b068fc378daa952ba7f163c4a11628f55a4df523b3ef91a4949350505050565b611185611aee565b6007805460ff60a01b191690557f5db9ee0a495bf2e6ff9c91a7834c1ba4fdd244a5e8aa4e537bd38aeae4b073aa335b6040516001600160a01b03909116815260200160405180910390a1565b600780546001600160a01b038381166001600160a01b0319831681179093556040519116919082907f8be0079c531659141344cd1fd0a4f28419497f9722a3daafe3b4186f6b6457e090600090a35050565b61122c611542565b6007805460ff60a01b1916600160a01b1790557f62e78cea01bee320cd4e420270b5ea74000d11b0c9f74754ebdbfc544b05a2586111b53390565b6001600160a01b03821661129957604051630b61174360e31b81526001600160a01b038316600482015260240161052b565b6001600160a01b03838116600081815260056020908152604080832094871680845294825291829020805460ff191686151590811790915591519182527f17307eab39ab6107e8899845ad3d59bd9653f200f220920489ca2b5937696c31910160405180910390a3505050565b6001600160a01b0383163b1561142a57604051630a85bd0160e11b81526001600160a01b0384169063150b7a029061134890889088908790879060040161260c565b6020604051808303816000875af1925050508015611383575060408051601f3d908101601f1916820190925261138091810190612649565b60015b6113ec573d8080156113b1576040519150601f19603f3d011682016040523d82523d6000602084013e6113b6565b606091505b5080516000036113e457604051633250574960e11b81526001600160a01b038516600482015260240161052b565b805160208201fd5b6001600160e01b03198116630a85bd0160e11b1461142857604051633250574960e11b81526001600160a01b038516600482015260240161052b565b505b5050505050565b606061143c82611011565b50600082815260066020526040812080546114569061230c565b80601f01602080910402602001604051908101604052809291908181526020018280546114829061230c565b80156114cf5780601f106114a4576101008083540402835291602001916114cf565b820191906000526020600020905b8154815290600101906020018083116114b257829003601f168201915b5050505050905060006114ed60408051602081019091526000815290565b905080516000036114ff575092915050565b815115611531578082604051602001611519929190612666565b60405160208183030381529060405292505050919050565b61153a84611b18565b949350505050565b600754600160a01b900460ff16156106115760405163d93c066560e01b815260040160405180910390fd5b6104cb828260405180602001604052806000815250611b8d565b606060006040518060600160405280604081526020016126f960409139835190915060008190036115c957505060408051602081019091526000815292915050565b600060036115d8836002612695565b6115e291906126a8565b6115ed9060046126ca565b905060008167ffffffffffffffff81111561160a5761160a6120df565b6040519080825280601f01601f191660200182016040528015611634576020820181803683370190505b5090506000805b8482101561188a576000858310611653576000611679565b888361165e816123f1565b9450815181106116705761167061239c565b016020015160f81c5b60ff169050600086841061168e5760006116b4565b8984611699816123f1565b9550815181106116ab576116ab61239c565b016020015160f81c5b60ff16905060008785106116c95760006116ef565b8a856116d4816123f1565b9650815181106116e6576116e661239c565b016020015160f81c5b60ff169050600081611709600885901b601087901b612695565b6117139190612695565b905089601282901c603f168151811061172e5761172e61239c565b01602001516001600160f81b0319168786611748816123f1565b97508151811061175a5761175a61239c565b60200101906001600160f81b031916908160001a90535089600c82901c603f168151811061178a5761178a61239c565b01602001516001600160f81b03191687866117a4816123f1565b9750815181106117b6576117b661239c565b60200101906001600160f81b031916908160001a90535089600682901c603f16815181106117e6576117e661239c565b01602001516001600160f81b0319168786611800816123f1565b9750815181106118125761181261239c565b60200101906001600160f81b031916908160001a9053508981603f168151811061183e5761183e61239c565b01602001516001600160f81b0319168786611858816123f1565b97508151811061186a5761186a61239c565b60200101906001600160f81b031916908160001a9053505050505061163b565b6000811180156118c85750826118a16001836123c8565b815181106118b1576118b161239c565b6020910101516001600160f81b031916603d60f81b145b156118df57806118d7816126e1565b91505061188a565b50909695505050505050565b60008281526006602052604090206119038282612450565b506040518281527ff8e1a15aba9398e019f0b49df1a4fde98ee17ae345cb5f6b5e2c27f5033e8ce790602001610cb5565b60006001600160e01b031982166380ac58cd60e01b148061196557506001600160e01b03198216635b5e139f60e01b145b806103ff57506301ffc9a760e01b6001600160e01b03198316146103ff565b808061199857506001600160a01b03821615155b15611a5a5760006119a884611011565b90506001600160a01b038316158015906119d45750826001600160a01b0316816001600160a01b031614155b80156119e757506119e58184610f80565b155b15611a105760405163a9fbf51f60e01b81526001600160a01b038416600482015260240161052b565b8115611a585783856001600160a01b0316826001600160a01b03167f8c5be1e5ebec7d5bd14f71427d1e84f3dd0314c0f7b2291e5b200ac8c7c3b92560405160405180910390a45b505b5050600090815260046020526040902080546001600160a01b0319166001600160a01b0392909216919091179055565b611a95838383611ba5565b61062e576001600160a01b038316611ac357604051637e27328960e01b81526004810182905260240161052b565b60405163177e802f60e01b81526001600160a01b03831660048201526024810182905260440161052b565b600754600160a01b900460ff1661061157604051638dfc202b60e01b815260040160405180910390fd5b6060611b2382611011565b506000611b3b60408051602081019091526000815290565b90506000815111611b5b5760405180602001604052806000815250611b86565b80611b6584611c08565b604051602001611b76929190612666565b6040516020818303038152906040525b9392505050565b611b978383611c9b565b61062e336000858585611306565b60006001600160a01b0383161580159061153a5750826001600160a01b0316846001600160a01b03161480611bdf5750611bdf8484610f80565b8061153a5750506000908152600460205260409020546001600160a01b03908116911614919050565b60606000611c1583611d00565b600101905060008167ffffffffffffffff811115611c3557611c356120df565b6040519080825280601f01601f191660200182016040528015611c5f576020820181803683370190505b5090508181016020015b600019016f181899199a1a9b1b9c1cb0b131b232b360811b600a86061a8153600a8504945084611c6957509392505050565b6001600160a01b038216611cc557604051633250574960e11b81526000600482015260240161052b565b6000611cd383836000611084565b90506001600160a01b0381161561062e576040516339e3563760e11b81526000600482015260240161052b565b60008072184f03e93ff9f4daa797ed6e38ed64bf6a1f0160401b8310611d3f5772184f03e93ff9f4daa797ed6e38ed64bf6a1f0160401b830492506040015b6d04ee2d6d415b85acef81000000008310611d6b576d04ee2d6d415b85acef8100000000830492506020015b662386f26fc100008310611d8957662386f26fc10000830492506010015b6305f5e1008310611da1576305f5e100830492506008015b6127108310611db557612710830492506004015b60648310611dc7576064830492506002015b600a83106103ff5760010192915050565b508054611de49061230c565b6000825580601f10611df4575050565b601f016020900490600052602060002090810190610fe991905b80821115611e225760008155600101611e0e565b5090565b6001600160e01b031981168114610fe957600080fd5b600060208284031215611e4e57600080fd5b8135611b8681611e26565b60005b83811015611e74578181015183820152602001611e5c565b50506000910152565b60008151808452611e95816020860160208601611e59565b601f01601f19169290920160200192915050565b602081526000611b866020830184611e7d565b600060208284031215611ece57600080fd5b5035919050565b80356001600160a01b0381168114611eec57600080fd5b919050565b60008060408385031215611f0457600080fd5b611f0d83611ed5565b946020939093013593505050565b60008060408385031215611f2e57600080fd5b611f3783611ed5565b9150611f4560208401611ed5565b90509250929050565b600080600060608486031215611f6357600080fd5b611f6c84611ed5565b9250611f7a60208501611ed5565b9150604084013590509250925092565b600060208284031215611f9c57600080fd5b611b8682611ed5565b6020808252825182820181905260009190848201906040850190845b818110156118df57835183529284019291840191600101611fc1565b60208152815160208201526000602083015161200460408401826001600160a01b03169052565b506040830151610100806060850152612021610120850183611e7d565b91506060850151601f198086850301608087015261203f8483611e7d565b935060808701519150808685030160a087015261205c8483611e7d565b935060a08701519150808685030160c08701525061207a8382611e7d565b92505060c085015160e085015260e08501516120998286018215159052565b5090949350505050565b600080604083850312156120b657600080fd5b6120bf83611ed5565b9150602083013580151581146120d457600080fd5b809150509250929050565b634e487b7160e01b600052604160045260246000fd5b600067ffffffffffffffff80841115612110576121106120df565b604051601f8501601f19908116603f01168101908282118183101715612138576121386120df565b8160405280935085815286868601111561215157600080fd5b858560208301376000602087830101525050509392505050565b6000806000806080858703121561218157600080fd5b61218a85611ed5565b935061219860208601611ed5565b925060408501359150606085013567ffffffffffffffff8111156121bb57600080fd5b8501601f810187136121cc57600080fd5b6121db878235602084016120f5565b91505092959194509250565b600082601f8301126121f857600080fd5b611b86838335602085016120f5565b6000806040838503121561221a57600080fd5b82359150602083013567ffffffffffffffff81111561223857600080fd5b612244858286016121e7565b9150509250929050565b600080600080600060a0868803121561226657600080fd5b61226f86611ed5565b9450602086013567ffffffffffffffff8082111561228c57600080fd5b61229889838a016121e7565b955060408801359150808211156122ae57600080fd5b6122ba89838a016121e7565b945060608801359150808211156122d057600080fd5b6122dc89838a016121e7565b935060808801359150808211156122f257600080fd5b506122ff888289016121e7565b9150509295509295909350565b600181811c9082168061232057607f821691505b60208210810361234057634e487b7160e01b600052602260045260246000fd5b50919050565b6020808252600e908201526d139bdd08185d5d1a1bdc9a5e995960921b604082015260600190565b60208082526014908201527310985919d948191bd95cc81b9bdd08195e1a5cdd60621b604082015260600190565b634e487b7160e01b600052603260045260246000fd5b634e487b7160e01b600052601160045260246000fd5b818103818111156103ff576103ff6123b2565b634e487b7160e01b600052603160045260246000fd5b600060018201612403576124036123b2565b5060010190565b601f82111561062e57600081815260208120601f850160051c810160208610156124315750805b601f850160051c820191505b818110156114285782815560010161243d565b815167ffffffffffffffff81111561246a5761246a6120df565b61247e81612478845461230c565b8461240a565b602080601f8311600181146124b3576000841561249b5750858301515b600019600386901b1c1916600185901b178555611428565b600085815260208120601f198616915b828110156124e2578886015182559484019460019091019084016124c3565b50858210156125005787850151600019600388901b60f8161c191681555b5050505050600190811b01905550565b82815260406020820152600061153a6040830184611e7d565b683d913730b6b2911d1160b91b8152835160009061254e816009850160208901611e59565b701116113232b9b1b934b83a34b7b7111d1160791b600991840191820152845161257f81601a840160208901611e59565b6a11161134b6b0b3b2911d1160a91b601a929091019182015283516125ab816025840160208801611e59565b61227d60f01b6025929091019182015260270195945050505050565b7f646174613a6170706c69636174696f6e2f6a736f6e3b6261736536342c0000008152600082516125ff81601d850160208701611e59565b91909101601d0192915050565b6001600160a01b038581168252841660208201526040810183905260806060820181905260009061263f90830184611e7d565b9695505050505050565b60006020828403121561265b57600080fd5b8151611b8681611e26565b60008351612678818460208801611e59565b83519083019061268c818360208801611e59565b01949350505050565b808201808211156103ff576103ff6123b2565b6000826126c557634e487b7160e01b600052601260045260246000fd5b500490565b80820281158282048414176103ff576103ff6123b2565b6000816126f0576126f06123b2565b50600019019056fe4142434445464748494a4b4c4d4e4f505152535455565758595a6162636465666768696a6b6c6d6e6f707172737475767778797a303132333435363738392b2fa26469706673582212201213c6def2a52ed314bad3a5d2f3d334db385e9acc1688798e4fd1da0589bb8064736f6c63430008140033",
  "linkReferences": {},
  "deployedLinkReferences": {}
}